:020000040800F2
:10000000A8180020C5010008810A0008250800087A
:100010007D0A000881070008BD14000800000000E8
:100020000000000000000000000000008112000835
:1000300085070008000000006F0F0008411300084A
:10004000DF010008DF010008DF010008DF01000810
:10005000DF010008DF010008C5070008DF01000814
:10006000DF010008DF010008DF010008DF010008F0
:10007000DF010008DF010008DF010008DF010008E0
:10008000DF010008DF010008DF010008DF010008D0
:10009000DF010008DF010008DF010008DF010008C0
:1000A000DF010008DF010008DF010008DF010008B0
:1000B000DF010008DF010008DF010008DF010008A0
:1000C000DF010008DF010008DF010008DF01000890
:1000D000DF01000859140008DF010008DF010008F3
:1000E000DF010008DF010008DF010008DF01000870
:1000F000DF010008DF010008DF010008DF01000860
:10010000DF010008DF010008DF010008DF0100084F
:10011000DF010008DF01000811140008DF010008FA
:10012000DF010008DF010008DF010008DF0100082F
:10013000DF010008DF010008DF010008DF0100081F
:10014000DF010008DF010008DF010008DF0100080F
:10015000DF010008DF010008DF010008DF010008FF
:10016000DF010008DF010008DF010008DF010008EF
:10017000DF010008DF010008DF01000800000000C7
:10018000DF010008DF010008DF010008DF010008CF
:10019000DF010008DF010008DF01000800000000A7
:1001A000DF010008DF010008DF010008DFF810D0E0
:1001B00000F0D4FA00480047291F0008AFF3008080
:1001C000A81800200648804706480047FEE7FEE7DB
:1001D000FEE7FEE7FEE7FEE7FEE7FEE7FEE7FEE7F7
:1001E00049130008AD0100082DE9FE4F804681EA61
:1001F0000300C00F0C46009021F0004123F00045A1
:10020000B8EB0200A94105D24046214690461C4663
:100210000B46024623F00040104347D0270DC7F39A
:100220000A00C3F30A510290401A019040286BDA89
:10023000C3F3130040F4801B0098924620B10023C2
:10024000D2EB030A63EB0B0B01985946C0F1400255
:10025000504600F0C4F906460D4650465946019AEC
:1002600000F0DCF910EB08006141002487EA11522C
:1002700084EAE7731A4340D0009A62B3019A012AD4
:100280004FEA075215DC001B61EB02014FF0004200
:1002900002EA0752CDE90042001C41F580113246C6
:1002A0002B4600F0DCF903B0BDE8F08F4046214654
:1002B000F9E7001B61EB0201001C41F580130018F7
:1002C0005B412018A2F5001747EB030140EAD57007
:1002D000B6196D4111E06D084FEA360645EAC07562
:1002E0004FEA0752001B61EB0201001C41F580112F
:1002F00049084FEA30000019514132462B4603B0FD
:10030000BDE8F04F00F09CB90098012240000023A6
:10031000D0EB020263EBE073009821464FEAE074F1
:10032000B8EB000061EB0401E9E783F000435BE711
:1003300081F0004158E72DE9FE4F81EA030404F003
:10034000004421F0004100944FF0000B23F00043E3
:1003500050EA01045ED052EA03045BD0C3F30A54AE
:10036000C1F30A552C44A4F2F3340194A0FB0254C7
:10037000C1F3130141F48011C3F3130343F4801359
:1003800001FB024400FB034E840A970A44EA8154AD
:1003900047EA8357A4FB076802958D0A05FB07858A
:1003A0004FEA932C04FB0C542705029D4FEA065894
:1003B00047EA1637B5EB08056EEB070C870E920E71
:1003C00047EA811742EA8312A7FB0201B6EB0B0151
:1003D00064EB00042B0D43EA0C335E1844EB1C5015
:1003E000DA465146E7FB0201C5F313044FEA0B332B
:1003F00043EA14534FEA0432019C43EA0603A4F192
:100400000C040294009CCDE900B400F028F903B07C
:10041000BDE8F08F00200146F9E72DE9F04D81EAB3
:10042000030404F0004B21F0004514464FF0000A8D
:1004300023F0004150EA050220D054EA01021DD009
:10044000C5F30A570246C5F31303C1F31300C1F302
:100450000A5640F4801543F48013A7EB0608101BDE
:10046000D64608F2FD3873EB050002D308F1010807
:1004700001E092185B41B8F1000F03DA0020014659
:10048000BDE8F08D00204FF48011064684460EE052
:10049000171B73EB050705D3121B63EB050306431C
:1004A0004CEA010C49084FEA300092185B4150EACF
:1004B0000107EDD152EA030012D082EA040083EA78
:1004C0000501084305D0101BAB4106D201220023D1
:1004D00006E000224FF0004302E06FF001025310EB
:1004E0001AEB06004CEB085110EB0A0041EB0B0134
:1004F000BDE8F04D00F0A4B80EB540F233410291D2
:100500000021CDE900110A460B4600F0A8F803B01F
:1005100000BD70B5C1F30A5201F000450024C1F3DB
:10052000130140F2FF3341F480119A4201DA0020B6
:1005300070BD40F233439A42A2F2334203DC52428E
:1005400000F05CF800E090402C43F1D0404270BDD8
:1005500030B50B46014600202022012409E021FA93
:1005600002F59D4205D303FA02F5491B04FA02F590
:100570002844151EA2F10102F1DC30BD2DE9F05F27
:100580000546002092469B46884606468146402402
:100590001BE0284641464746224600F02FF85346C6
:1005A0005A46C01A914110D311461846224600F00F
:1005B00016F82D1A67EB01084F462246012000214C
:1005C00000F00DF817EB00094E41201EA4F10104C4
:1005D000DFDC484631462A464346BDE8F09F202AE4
:1005E00004DB203A00FA02F1002070479140C2F18A
:1005F000200320FA03F3194390407047202A04DBBC
:10060000203A21FA02F00021704721FA02F3D0408B
:10061000C2F120029140084319467047202A06DBA8
:10062000CB17203A41FA02F043EAE07306E041FAC0
:1006300002F3D040C2F120029140084319467047AE
:1006400010B5141E73F1000408DA401C41F10001DA
:1006500092185B411A4301D120F0010010BD2DE931
:10066000F04D92469B4611B1B1FA81F202E0B0FA28
:1006700080F220329046FFF7B2FF04460F4640EA70
:100680000A0041EA0B0153465A46084313D011466B
:1006900053EA010019D0C8F140025046FFF7AEFFFF
:1006A00005460E46504659464246FFF798FF084316
:1006B00005D0012004E020463946BDE8F08D002039
:1006C000054346EAE0762C4337430A986305E40A7B
:1006D000A0EB08000022FD0A44EA47540A3002D584
:1006E00000200146E9E7010510196941DDE90845E7
:1006F00000196941BDE8F04DA2E7C1F30A52C1F308
:10070000130140F2FF3341F480119A4202DA0020D3
:100710000146704740F233439A42A2F2334202DC70
:100720005242FFF76BBFFFF75ABF000030B5041EFF
:1007300071F1000404DB4FF00044404264EB01011E
:10074000141E73F1000405DB1C464FF000435242B7
:1007500063EB0403994208BF904230BD064C074D3D
:1007600006E0E06840F0010394E807009847103481
:10077000AC42F6D3FFF71EFDE0410008004200083E
:1007800000BFFEE7704700000C48006820F0807052
:100790000A4908600846006840F080700860084810
:1007A000006820F00100064908600846006840F033
:1007B000010008600020486070470000FCED00E088
:1007C000001000E010B5012001F03CFB012813D11E
:1007D00001210A4801F057FB012807D18021084870
:1007E00001F04AFB07A000F06BFE02E009A000F058
:1007F00067FE012001F020FB10BD00000000024058
:10080000000C02406B6579207072657373210D0ACC
:10081000000000006B65792072656C65617365216D
:100820000D0A000000BFFEE710B50122D1020D48FD
:1008300001F024FB012291020A4801F01FFB00F0A5
:1008400015F900224FF40061064801F017FB00F093
:100850000DF900224FF48061024801F00FFB00F017
:1008600005F910BD0004024010B500224FF40061EC
:10087000074801F003FB01229102054801F0FEFA4E
:1008800000F0F4F80122D102014801F0F7FA10BD9E
:100890000004024010B50122D1020A4801F0EEFA2C
:1008A00000F0E4F801229102064801F0E7FA00F0B6
:1008B000DDF800224FF48061024801F0DFFA00F019
:1008C000D5F810BD0004024070B500250A240022AE
:1008D0004FF480711B4801F0D1FA012251021948EE
:1008E00001F0CCFA4FF4007301220021154801F009
:1008F000D2FA01221102134801F0C0FA04E0601E8E
:10090000C4B2052001F082FA4FF400710D4801F0E5
:10091000BAFA012801D1002CF1D1002C03DC00F03F
:100920007DF8012070BD00224FF48071054801F070
:10093000A5FA4FF4007301221146024801F0ABFA08
:100940002846EFE70004024010B504464FF4007358
:1009500001221146194801F09EFA00224FF48071DD
:10096000164801F08BFA00224FF40071134801F091
:1009700085FA052001F04AFA34B900224FF40071DB
:100980000E4801F07BFA04E0012251020B4801F00D
:1009900075FA01221102094801F070FA052001F0F0
:1009A00035FA00224FF48071044801F067FA012201
:1009B0005102024801F062FA10BD0000000402403A
:1009C00010B54FF4007301221146134801F063FA89
:1009D00001221102104801F051FA00224FF4007177
:1009E0000D4801F04BFA012251020B4801F046FA82
:1009F000052001F00BFA00224FF40071064801F0C7
:100A00003DFA052001F002FA00224FF480710248FD
:100A100001F034FA10BD00000004024010B54FF49C
:100A2000007301221146104801F035FA00224FF4FC
:100A300080710D4801F022FA00224FF400710A483B
:100A400001F01CFA01221102074801F017FA0520F3
:100A500001F0DCF901225102034801F00FFA0520F0
:100A600001F0D4F910BD0000000402400A2000BFCC
:100A7000011EA0F10102D0B2FAD1704700BFFEE71B
:100A80007047000010B5002807DA0A07140E054A5F
:100A900000F00F031B1FD45403E00A07130E024A91
:100AA000135410BD18ED00E000E400E070B5002420
:100AB0000CE0002506E00020074901EBC5010855C0
:100AC000681CC5B2802DF6DB601CC4B2082CF0DBBC
:100AD00000F0F4F870BD000024100020F0B51446BA
:100AE0000B46CF1701EB5777C7F3C702CF1701EBC0
:100AF0005777FF10A1EBC707FEB20123B340DDB269
:100B00004CB1134B03EBC0039B5C2B43104F07EB23
:100B1000C007BB541AE00E4B03EBC0039B5CDB43E6
:100B20000B4F07EBC007BB54094B03EBC0039B5CA7
:100B30002B43074F07EBC007BB54054B03EBC00328
:100B40009B5CDB43024F07EBC007BB54F0BD0000CA
:100B50002410002010B540F6014001F029FB40F6BA
:100B6000014001F025FB4FF48063012211464C48FF
:100B700001F091F94FF4806302220021484801F00E
:100B8000B1F901229102464801F078F94FF400636F
:100B900001221146424801F07EF94FF4006302221F
:100BA00000213F4801F09EF90122D1023C4801F0AA
:100BB00065F9C82001F01EF90021AE2000F0BBF954
:100BC0000021084600F0B7F90021102000F0B3F929
:100BD0000021402000F0AFF90021812000F0ABF9A6
:100BE0000021CF2000F0A7F90021A12000F0A3F9F7
:100BF0000021C82000F09FF90021A62000F09BF9F9
:100C00000021A82000F097F900213F2000F093F97F
:100C10000021D32000F08FF90021084600F08BF965
:100C20000021D52000F087F90021802000F083F911
:100C30000021D92000F07FF90021F12000F07BF99C
:100C40000021DA2000F077F90021122000F073F97A
:100C50000021DB2000F06FF90021402000F06BF94B
:100C60000021202000F067F90021022000F063F944
:100C700000218D2000F05FF90021142000F05BF9C5
:100C80000021A42000F057F90021A62000F053F91C
:100C9000FFF70CFF0021AF2000F04DF910BD000060
:100CA0000004024010B50246012000E050430B1E34
:100CB000A1F10104E1B2F9D110BD000070B500242A
:100CC0002BE004F1B001C8B2002100F034F900219A
:100CD000084600F030F90021102000F02CF9FFF751
:100CE000A3FD782000F0CEFAFFF7D4FD402000F0FD
:100CF000C9FAFFF7CFFD002509E0094901EBC5015D
:100D0000085D00F0BFFAFFF7C5FD681CC5B2802D75
:100D1000F3DBFFF7A9FD601CC4B2082CD1DB70BD6A
:100D2000241000202DE9FE4F0746884692461C46B7
:100D30000197CDF80080082C02D14FF006091FE082
:100D40002046E31704EB5373DB1021464FEAE47CA3
:100D500004EB5C7C4FEAEC0CA4EBCC0CBCF1000F78
:100D600002D04FF0010C01E04FF0000C634422462A
:100D700004EBD27C4FEA6C0C03FB0CF303F0FF098D
:100D8000AAF12000C6B200255EE0082C07D106EBD0
:100D900046002F4901EB400010F805B01DE00C2C77
:100DA00007D106EB46002B4901EB800010F805B097
:100DB00013E0102C05D1284800EB061010F805B000
:100DC0000BE0182C07D106EBC600244901EB80008C
:100DD00010F805B001E0BDE8FE8F002002901CE095
:100DE0000BF0010028B1414638460C9AFFF776FE19
:100DF00009E00C9808B9012000E0002002464146B5
:100E00003846FFF76BFE4FEA6B0B08F1010000F06C
:100E1000FF080298401CC0B2029002980828DFDB4D
:100E2000781CC7B2082C0BD004EBD4714A1001997E
:100E3000791A8A4204D1019F00980830C0B200900C
:100E4000DDF80080681CC5B24D459EDB00BFC2E7DF
:100E5000D0230008F82500086C2A00085C30000840
:100E60002DE9FF4F82B0064691461F46DDE90F4A45
:100E70004FF0000B082C01D14FF0020B002530E0A1
:100E8000781B401EC1B20A20FFF70CFFB9FBF0F03F
:100E90000A21B0FBF1F201FB1208B8F1000F0ED1EC
:100EA00004EBD4710BEB610101FB0561C8B2234671
:100EB0003022CDE900A40399FFF734FF0FE004EBE3
:100EC000D4710BEB610101FB0561C8B208F130017F
:100ED000CAB22346CDE900A40399FFF723FF681C9B
:100EE000C5B2BD42CCDB06B0BDE8F08F2DE9F841BC
:100EF00006460F4614461D46DDF81C8013E0CDF86B
:100F0000008022782B4639463046FFF70BFF082D2C
:100F100002D1B01DC6B205E0284605EBD07106EB44
:100F20006101CEB2641C2078202802DB20787E2864
:100F3000E5DDBDE8F88170B505460C46FFF774FCA9
:100F4000782000F09FF9FFF7A5FC1CB1402000F0CD
:100F500099F902E0002000F095F9FFF79BFC284684
:100F600000F090F9FFF796FCFFF77EFC70BD70472C
:100F700070B500244FF4007301220021174800F0DF
:100F80008AFF00251FE000224FF48071134800F013
:100F900075FF052000F03AFF012211020F4800F012
:100FA0006DFF052000F032FF6006040E4FF4007163
:100FB0000A4800F068FF08B144F00104052000F081
:100FC00025FF681CC5B2082DDDDB00224FF48071BF
:100FD000024800F053FF204670BD000000040240AC
:100FE00010B540F6014001F0E3F840F6014001F091
:100FF000DFF84FF48073002201210C4800F04BFF12
:101000004FF4807302220021084800F06BFF4FF478
:10101000007300220121054800F03DFF4FF40073EA
:1010200002220021014800F05DFF10BD00040240D3
:1010300070B52DED088B82B004460025002000908D
:10104000019000269FED680AB0EE40BA9FED660A57
:10105000F0EE40BA42F2301000F0F2F8FFF7B0FCC8
:10106000882000F03BF9FFF72FFC012803D102B0E4
:10107000BDEC088B70BD201200F030F9FFF724FCA6
:10108000012801D10220F2E7E0B200F027F9FFF7D2
:101090001BFC012801D10320E9E700BF681C85B2D1
:1010A000142D01DD0420E2E7022000F0A3FEFFF78B
:1010B00087FC892000F012F9FFF706FC0128EDD02B
:1010C000FFF756FF8DF800000020FFF73DFCFFF70B
:1010D0004FFF8DF801000020FFF736FCFFF748FFB7
:1010E0008DF802000020FFF72FFCFFF741FF8DF87D
:1010F00003000020FFF728FCFFF73AFF8DF80400FB
:101100000020FFF721FCFFF733FF8DF805000120D9
:10111000FFF71AFCFFF782FC0221684600F035FE5B
:101120009DF80210884259D102210DF1030000F010
:101130002CFE9DF80510884250D19DF801009DF8C5
:10114000001040EA01263046FFF7D6F941EC1A0BB1
:101150009FED260B53EC102BFFF75FF941EC190BB9
:101160009FED240B53EC102BFFF7E5F841EC180B27
:101170009FED220B53EC102BFFF7D7F8214A03C247
:1011800000269DF804009DF8031040EA0126304631
:10119000FFF7B2F941EC190B9FED140B53EC102B38
:1011A000FFF73BF941EC180B9FED170B53EC102B9D
:1011B000FFF7C1F8164A03C2124890ED000B53EC3A
:1011C000102B14A000F07CF9114890ED000B53ECAB
:1011D000102B14A000F074F9002048E715A000F0CF
:1011E0006FF9052043E70000000000000000000048
:1011F000E0FFEF400000000000E06540000000005C
:10120000008046401000002000000000000059400F
:101210001800002074656D70203D20252E32660D6B
:101220000A00000068756D69203D20252E32660D8C
:101230000A000000D0A3D1E9CAA7B0DC0D0A000063
:1012400010B50446FFF7BCFB882000F047F8FFF715
:101250003BFB012800D110BD201200F03FF8FFF742
:1012600033FB012801D10220F5E7E0B200F036F8A7
:10127000FFF72AFB012801D10320ECE70020EAE771
:101280007047000070B50446002521E004F080009E
:1012900028B10122D102104800F0F0FD05E0002243
:1012A0004FF400610C4800F0E9FDFFF7DFFB01227D
:1012B0009102094800F0E2FDFFF7D8FB00224FF44D
:1012C0008061054800F0DAFD6006040E681CC5B2B6
:1012D000082DDBDB70BD00000004024070B5044641
:1012E00000254FF4007301221146144800F0D3FD8D
:1012F00000224FF48071114800F0C0FD00BF1AE0D9
:10130000E2094FF400710D4800F0B8FD00BF012262
:1013100011020A4800F0B2FD052000F077FD00221E
:101320004FF48071054800F0A9FD052000F06EFD26
:101330006006040E6D1C082DE2DB70BD0004024047
:1013400010B500F04BFD10BD08B52D48006840F405
:1013500070002B4908602B48006840F001002949C3
:10136000086028480830006840F0800025490831AE
:1013700008600020009002E00098401C00904CF2B1
:10138000503100988842F7D31E480830006840F07A
:1013900090001C49083108600020009002E000988D
:1013A000401C00904CF2503100988842F7D3154809
:1013B0000830006820F00300124908310860114825
:1013C0000068114908400F4908600846006820F489
:1013D0008020086000200B490831086000BF0948E0
:1013E0000830006800200028F9D108480549091D87
:1013F0000860002003490C31086000F069FF08BD57
:1014000088ED00E000380240FFFFF6FE10300024B7
:1014100010B50121084800F08AFF01280AD10121F6
:10142000054800F081FF8021044800F025FD04A05C
:1014300000F046F810BD000000100040000C024013
:101440004253505F54494D45525F49525148414EB5
:10145000444C4552210D0A0010B51249124800F0C3
:101460008AFF01280BD1104800F06DFFC1B20F4870
:1014700002880088401C0D4B18800D4881540D498E
:10148000094800F078FF01280AD1074800F05BFF07
:1014900000200749054A128888540120064908702F
:1014A00010BD0000050305000010014008000020E9
:1014B00024000020040304000A00002000BFFEE70F
:1014C0000FB4054B10B503A9044A029800F0DAF8EE
:1014D00010BC5DF814FB0000691E0008200000200D
:1014E00002E008C8121F08C1002AFAD170477047ED
:1014F000002001E001C1121F002AFBD1704700004B
:101500002DE9FF5F82B00021DDE90430020DDDF836
:1015100040B0034318D044F61050A2F2FF324243C9
:101520001514119801281FD0A5EB0B00401C5FEA91
:10153000000A4FF000064E4FDFF83891B046504693
:1015400015D5CAF1000413E0119801244AA301281B
:1015500001D16FEA0B010298119AC0E90031C0E98C
:10156000024206B0BDE8F09FCBF10000DFE7044681
:101570000021404A491842EB0450CDE9001012E026
:10158000E00707D032463B4640464946FEF7D3FEC9
:101590008046894632463B4610461946FEF7CBFE4A
:1015A00006460F466410002CEAD1DDE90401DDE9AE
:1015B0000023BAF1000F06DAFEF7BDFE42464B46A5
:1015C000FEF7B9FE05E0FEF728FF42464B46FEF760
:1015D00024FF04460E460022284BFFF7A7F803D845
:1015E0004FF0FF30014607E00022254B20463146F0
:1015F000FEF7FAFDFFF781F8102409E0002C0ADB62
:101600000A220023FEF7BAFF039B30321A55641EEC
:1016100050EA0102F2D1641C039AC4F1110314448C
:10162000119A012A03D0012208430DD10AE0084390
:1016300004D000204FF0110B119072E7A3EB0B05C3
:101640006D1E0DE05B4504DD4FF0000205F1010564
:1016500004E003DA4FF00002A5F10105002AECD006
:1016600002981199C0E90231C0E9004579E700000C
:10167000000014400000F03F300000000000F04384
:101680000000E03F2DE9FF4F95B09A468846064698
:101690000025EEE1252877D100242746F94A0121CB
:1016A000039400E0044316F8013F203B01FA03F0E5
:1016B0001042F7D130782A2811D06FF02F033078FC
:1016C000A0F13002092A16D8039A44F0020402EB72
:1016D000820203EB42021044761C0390EFE758F8B5
:1016E000042B0392002A03DA504244F4005403907E
:1016F00044F00204761C30782E2816D116F8010F1B
:1017000044F004042A280DD06FF02F023078A0F1A5
:101710003003092B09D807EB870302EB4303C718F3
:10172000761CF3E758F8047B761C30786C280FD0D1
:1017300006DC4C2817D068280DD06A2814D104E0A4
:10174000742810D07A280FD10DE044F400140AE078
:1017500044F4801401E044F440147278824202D1CF
:1017600004F58014761C761C307866280BD013DCC8
:10177000582877D009DC002875D04528F6D04628AF
:10178000F4D047281AD193E118E0632835D06428B3
:1017900079D0652812D18BE1702873D008DC6728D6
:1017A000F1D069286FD06E280DD06F2806D1ACE03B
:1017B00073282CD0752874D0782853D052461799A6
:1017C00090476D1C54E1C4F30250022809D003284D
:1017D0000DD0D8F8001004280DD00D6008F10408D1
:1017E00046E1D8F80010EA17C1E90052F6E7D8F848
:1017F00000100D80F2E70D70F0E718F8041B8DF86B
:10180000001000208DF80100EB46012003E058F89D
:1018100004BB4FF0FF3061074FF0000102D40DE030
:1018200009F101018946B9420FDA8145F8DB1BF85D
:1018300009100029F4D108E009F10101894681422B
:10184000FADB1BF809100029F6D103985346A0EBE8
:10185000090721463846179A00F080FA284400EB21
:10186000090507E044E008E10DE01BF8010B5246D2
:1018700017999047B9F10109F7D2534621463846E6
:10188000179AF2E039E00A21C4F302524FF0000B3C
:101890000091022A06D058F8040BC117032A09D078
:1018A0000AE023E008F1070020F00702F2E8020155
:1018B000904605E000B2C117042A01D140B2C11719
:1018C000002906DA0A460021404261EB02012D227E
:1018D00002E0220504D52B228DF80420012203E02A
:1018E000E20701D02022F7E7914657E00A2100E005
:1018F00010214FF0000B00910BE010214FF0000B76
:1019000044F004040827009103E008204FF0000B86
:101910000090C4F30252022A05D058F8040B0021AB
:10192000032A08D008E008F1070020F00702F2E8D7
:101930000201904603E080B2042A00D1C0B24FF009
:10194000000922072AD53278702A07D0DDF800C0B6
:101950008CF0100C5CEA0B0C05D00EE040228DF8E8
:101960000420012208E050EA010306D030238DF85C
:1019700004308DF8052002229146009B83F0080375
:1019800053EA0B030AD150EA010201D1620705D5DF
:1019900030228DF804204FF001097F1E3278582A3A
:1019A00004D039A20C920CAA02920BE03BA2F9E7F8
:1019B0005B46009AFEF7E2FD0C9B9B5C029A521E6E
:1019C0000292137050EA0102F2D1029804A9081A97
:1019D00000F1200B600702D524F4803400E00127D9
:1019E0005F4502DDA7EB0B0000E0002000EB0B01E0
:1019F000009003984944401A0390E00306D45346EC
:101A00002146179A039800F0A9F90544002706E03B
:101A100001A85246C05D179990476D1C7F1C4F4529
:101A2000F6DBE0030CD553462146179A039800F0E5
:101A300095F9054404E030205246179990476D1CF3
:101A40000099481E00900029F5DC08E002980299F0
:101A500052460078491C0291179990476D1CBBF1C2
:101A60000001ABF1010BF1DC5BE100F065F905442D
:101A7000761C307800287FF40DAE19B02846BDE8FA
:101A8000F08F000009280100303132333435363709
:101A900038396162636465660000000030313233BA
:101AA000343536373839414243444546000000005A
:101AB000600700D4062708F1070020F00700F0E8CF
:101AC0000223804603F0004C5FEA0C0001D097A08F
:101AD00009E0200501D596A005E0E00701D095A01A
:101AE00001E0AFF24C001390307823F000436528FA
:101AF0000CD006DC452809D046281DD047287FD1C8
:101B00003BE0662818D067287AD136E00021112FF3
:101B100001DB112000E0781CCDE9000104A90CA82C
:101B2000FFF7EEFCDDE90D010C9A4FF0000B07F119
:101B30000109109200914EE04FF000400097CDE96E
:101B4000011004A90CA8FFF7DBFCDDE90D020C9BDA
:101B50000F994FF0000B91461093009211B9791C28
:101B600000EB0109B7EB090003D4C0F1FF3B07F11B
:101B70000109A9EB0700019042E0012F00DA0127DB
:101B80000021112F01DD112000E03846CDE90001D0
:101B900004A90CA8FFF7B4FCDDE90D010C9A009133
:101BA0004FF0000BB946109221070FD4009A4A4516
:101BB00003DA914601E0A9F10109B9F1010F05DD50
:101BC000109AA9F10101515C3029F4D0B84202DA2F
:101BD00010F1040F03DA0121CDE9011010E0002813
:101BE00003DC8344A9EB000102E0411C494500DD10
:101BF0008946A0EB0B00401C01904FF00040029082
:101C0000200705D40198484502DB4FF0FF300190D2
:101C100000208DF84B0002980DF14B07B0F1004FFA
:101C200025D002200C902B200D90029800280CDA71
:101C3000404202902D200D9007E00A210298FEF705
:101C400087FC3031029007F8011D0C99481E0C905A
:101C50000029F2DC02980028EFD1791E0D98087057
:101C6000307800F0200040F0450007F8020D11A880
:101C7000C01BC01D02901398007800B1012000EB3A
:101C80000901019801EBE071029801440398401AA0
:101C9000401E0390E00306D453462146179A03984A
:101CA00000F05CF805441398007818B15246179973
:101CB00090476D1CE00323D553462146179A03989D
:101CC00000F04CF805441BE0BBF1000F07DB009867
:101CD000584504DD1098179910F80B0001E017998A
:101CE00030205246904701980BF1010B401E05F140
:101CF0000105019004D12E205246179990476D1C82
:101D0000B9F10001A9F10109DEDC05E017F8010BCA
:101D10005246179990476D1C0299481E029000295F
:101D2000F4DC53462146179A03989EE62D000000E6
:101D30002B000000200000002DE9F04104460025A2
:101D40001E461746880404D405E039462020B047D3
:101D50006D1C641EF9D52846BDE8F0812DE9F041DF
:101D6000044600251E469046C80301D5302700E0F2
:101D70002027880404D505E041463846B0476D1C4D
:101D8000641EF9D52846BDE8F081F0B5024631253C
:101D9000FF20002311E012F8016B7040002409E0DD
:101DA00000F080061EB1312686EA400600E04600BB
:101DB000F0B2641C082CF3DB5B1C8B42EBDBF0BD48
:101DC0004FF47A714143044A116000BF0249096827
:101DD0000029FBD170470000000000200448006883
:101DE00020B103480068401E0149086070470000A8
:101DF0000000002070B50446002504E04FF47A701E
:101E000000F004F86D1CA542F8D370BD70B504460F
:101E100007484568012000F039F90649B0FBF1F0A8
:101E2000444300BF02484068401BA042FAD370BD43
:101E3000001000E040420F000149086070470000B8
:101E4000143C014001460748006800EA01020548C9
:101E50001438006800EA010312B10BB10120704789
:101E60000020FCE7143C014070B504460D46E0B28A
:101E700000F09EFA204670BDC16270470AB18161D0
:101E800000E08162704702461069084008B10120F5
:101E900070470020FCE7F0B504460D461646216861
:101EA000E268002019E0012787401F409FB14FEAF8
:101EB000400C032707FA0CF7B943470005FA07F768
:101EC00039434FEA400C032707FA0CF7BA4347009F
:101ED00006FA07F73A43471CB8B21028E3D321604B
:101EE000E260F0BDF0B50C461546012C03D1466802
:101EF0001E43466002E046689E43466082680021B9
:101F00000DE001268E401E403EB14F000326BE402C
:101F1000B2434E0005FA06F632434E1CB1B2102908
:101F2000EFD38260F0BD00002DED028B82B04FF444
:101F3000A06000F0A1F800F0CFF9FEF725FCFFF754
:101F40004FF8FEF707FEFEF7B1FD84E04FF4604066
:101F5000FFF76EF84FF47A70FFF732FF9FED3E0BFC
:101F600053EC102B3E4890ED000B51EC100BFEF79C
:101F7000E2F941EC180BFEF7CCFA0446642094FB1E
:101F8000F0F694FBF0F100FB11470120102335A27D
:101F90000C2100900020FEF7A9FF01201021022350
:101FA0003246CDE900100C212820FEF759FF012010
:101FB00010232E220C2100903820FEF7B3FE0120C2
:101FC000102102233A46CDE900100C214020FEF7F3
:101FD00047FF9FED210B53EC102B244890ED000B95
:101FE00051EC100BFEF7A7F941EC180BFEF791FA34
:101FF0000546642095FBF0F895FBF0F100FB1159C4
:10200000012010231AA2242100900020FEF76EFF69
:102010000120102102234246CDE90010242128206E
:10202000FEF71EFF012010232E22242100903820CD
:10203000FEF778FE0120102102234A46CDE9001068
:1020400024214020FEF70CFFFEF738FE4FF4FA7013
:10205000FFF7B6FE00BF79E700000000000059401E
:102060001000002074656D703A0000001800002018
:1020700068756D693A00000002490143024A116027
:10208000704700000000FA050CED00E02DE9F04F6C
:102090008CB0064600200A903EA090E8004CC06834
:1020A000CDE905BECDF810A007900FF2EC0ADAE9F1
:1020B000000ACDE9020A0FF2E00ADAE9000ACDE9E6
:1020C000000A38480068C0F381000B900B9820B1DB
:1020D000012804D0022828D103E0334927E03349FE
:1020E00025E03048001F006800F03F072D48001F22
:1020F0000068C0F3881C2B48001F0068C0F3014033
:10210000401C4FEA40092748001F006800F480087F
:10211000B8F5800F01D1254B00E0234BB3FBF7F05E
:1021200000FB0CF0B0FBF9F101E01F4900BF00BF5C
:102130001C480068C0F3031404A8055D21FA05F2E9
:1021400018480068C0F3822402A8055D22FA05F051
:10215000099014480068C0F342341DF8045022FA74
:1021600005F0089036B1012E06D0022E06D0032EBF
:102170000AD106E00A9108E00A9206E009980A905E
:1021800003E008980A9000E000BF00BF0A980CB076
:10219000BDE8F08F00000000000000000102030411
:1021A00006070809083802400024F40040787D0141
:1021B000074A02EB9011D1F8001800F01F0301222A
:1021C0009A401143024B03EB9012C2F8001870477B
:1021D00000300240002000213A4A126842F4803266
:1021E000384B1A6000BF401C364A126802F40031B6
:1021F00019B94FF6FF729042F5D1324A126802F4D3
:1022000000320AB900BFFEE72E4A4032126842F09F
:1022100080522C4B40331A602B4A126842F44042E1
:10222000294B1A60274A08321268264B08331A6075
:102230001A46126842F400421A601A46126842F4C2
:10224000A0521A60214A1B1F1A601A1F126842F01E
:1022500080721B1F1A6000BF1A4A126802F00072D7
:10226000002AF9D0184A126842F48032164B1A60DC
:1022700000BF154A526802F48032002AF9D0124A8F
:10228000126842F40032104B1A6000BF0E4A5268C6
:1022900002F40032002AF9D00A4A0832126822F009
:1022A0000302084B08331A601A46126842F0020211
:1022B0001A6000BF034A0832126802F00802002ABE
:1022C000F8D070470038024000700040196440099F
:1022D00010B5FFF77FFF10BD10B511480068114918
:1022E000B0FBF1F4601EB0F1807F01D301200FE05C
:1022F000601E4FF0E02148610F214FF0FF30FEF7E4
:10230000C1FB00204FF0E021886107200861002018
:1023100008B100BFFEE70021481EFEF7B3FB10BD69
:102320000400002040420F00CA4302617047024689
:10233000D06800EA01031069084010B10BB1012018
:1023400070470020FCE701464868C0F3080070476A
:10235000C1F308024260704710B5024602EB9110CB
:10236000006801F01F040123A340184008B10120B8
:1023700010BD0020FCE770B5024600230024C1F325
:102380008910105801F01F060125B54000EA050329
:1023900002EB91500068C1F304460125B54000EA04
:1023A000050414B10BB1012070BD0020FCE7000052
:1023B00010B5044621460548FFF7CAFF00BF0721B4
:1023C0000248FFF7C9FF0028F9D010BD00100140F6
:1023D0000000000000000000002F000000000700C7
:1023E000070000147F147F1400242A7F2A12006241
:1023F00064081323003649552250000005030000ED
:1024000000001C224100000041221C000014083E74
:1024100008140008083E0808000000A0600000083A
:10242000080808080000606000000020100804028E
:10243000003E5149453E0000427F4000004261514C
:102440004946002141454B31001814127F100027E6
:1024500045454539003C4A494930000171090503A9
:1024600000364949493600064949291E00003636DA
:10247000000000005636000000081422410000143D
:10248000141414140000412214080002015109061A
:1024900000324959513E007C1211127C007F49499B
:1024A0004936003E41414122007F4141221C007FCC
:1024B00049494941007F09090901003E4149497ADA
:1024C000007F0808087F0000417F41000020404154
:1024D0003F01007F08142241007F40404040007FC0
:1024E000020C027F007F0408107F003E4141413E04
:1024F000007F09090906003E4151215E007F09194C
:1025000029460046494949310001017F0101003F48
:102510004040403F001F2040201F003F4038403FC8
:10252000006314081463000708700807006151492C
:10253000454300007F41410000552A552A550000BF
:1025400041417F000004020102040040404040403D
:10255000000001020400002054545478007F4844D5
:10256000443800384444442000384444487F00380C
:102570005454541800087E0901020018A4A4A47C35
:10258000007F080404780000447D400000408084FF
:102590007D00007F102844000000417F4000007C47
:1025A00004180478007C0804047800384444443853
:1025B00000FC242424180018242418FC007C08049F
:1025C000040800485454542000043F444020003C78
:1025D0004040207C001C2040201C003C4030403CFF
:1025E000004428102844001CA0A0A07C004464548F
:1025F0004C441414141414140000000000000000D3
:10260000000000000000FC000000000002000000CC
:10261000000C020C020000000000000090D0BCD0B2
:10262000BC900003000300001824FE448C00030249
:10263000070201001824D8B04C80000300010201F9
:10264000C038E438E000010202010202080600007E
:102650000000000000000000000000F8040200007C
:1026600000010204000204F800000004020100005E
:102670009060F86090000000010000002020FC2025
:10268000200000000100000000000000000008061B
:10269000000000002020202020000000000000009A
:1026A0000000000000000002000000000080601C2C
:1026B0000200040300000000F8040404F800010212
:1026C000020201000008FC000000000203020000FA
:1026D000188444241800030202020200080424247F
:1026E000D80001020202010040B088FC8000000016
:1026F000000302003C242424C40001020202010061
:10270000F824242CC0000102020201000C04E41C85
:102710000400000003000000D8242424D800010293
:102720000202010038444444F800000302020100A0
:102730000000100000000000020000000000200067
:102740000000000006000000002050880402000085
:1027500000000102909090909000000000000000A6
:102760000002048850200002010000001804C42464
:102770001800000002000000F804E494F8000102D0
:102780000202020000E09CF080000203000003024D
:1027900004FC2424D800020302020100F80404040B
:1027A0000C0001020202010004FC0404F800020310
:1027B0000202010004FC24740C0002030202030064
:1027C00004FC24740C00020302000000F00804441E
:1027D000CC4000010202010004FC2020FC040203A2
:1027E000000003020404FC040400020203020200CD
:1027F000000404FC040406040403000004FC24D0C8
:102800000C0402030200030204FC040000000203A3
:1028100002020203FC3CC03CFC0003000300030076
:1028200004FC30C4FC04020302000300F8040404A6
:10283000F80001020202010004FC24241800020333
:1028400002000000F8848404F80001020207050079
:1028500004FC2464980002030200030218242444A8
:102860008C000302020201000C04FC040C000002B4
:102870000302000004FC0000FC040001020201004D
:10288000047C80E01C040000030000001CE03CE02D
:102890001C00000300030000049C609C0400020371
:1028A00000030200041CE01C0400000203020000FC
:1028B0000C84641C04000203020203000000FE02F8
:1028C0000200000007040400000E30C000000000F9
:1028D00000010200000202FE0000000404070000E4
:1028E00000040204000000000000000000000000DE
:1028F00000000808080808080000020000000000A6
:10290000000000000040A0A0C0000001020203027D
:1029100004FC2020C00000030202010000C02020AF
:10292000600000010202020000C02024FC0000013F
:102930000202030200C0A0A0C000000102020200C7
:102940000020F82424040002030202000040A0A09A
:10295000602000070A0A0A0404FC2020C0000203C9
:10296000020003020020E400000000020302000055
:10297000000020E4000008080807000004FC80E0D4
:1029800020200203020003020404FC0000000202F3
:1029900003020200E020E020C00003000300030067
:1029A00020E02020C00002030200030200C020201B
:1029B000C00000010202010020E02020C000080F3A
:1029C0000A02010000C02020E0000001020A0F08F6
:1029D00020E0402020000203020000000060A0A0D0
:1029E00020000002020203000020F8200000000086
:1029F0000102020020E00020E000000102020302C8
:102A000020E0208060200000030100006080E08062
:102A100060000003000300002060806020000203CB
:102A20000003020020E02080602008080701000069
:102A30000020A0602000000203020200000020DE4F
:102A40000200000000070400000000FF000000007A
:102A5000000F00000002DE2000000004070000005C
:102A60000201020404020000000000000000000057
:102A7000000000000000000000000000000000F85E
:102A800000000000000000333000000000100C06C1
:102A9000100C0600000000000000000040C078405C
:102AA000C0784000043F04043F040400007088FC28
:102AB00008300000001820FF211E0000F008F00080
:102AC000E018000000211C031E211E0000F00888F1
:102AD000700000001E2123241927211010160E005B
:102AE000000000000000000000000000000000E006
:102AF000180402000000000718204000000204181B
:102B0000E00000000040201807000000404080F076
:102B1000804040000202010F01020200000000F0AC
:102B2000000000000101011F010101000000000080
:102B30000000000080B070000000000000000000F5
:102B4000000000000001010101010101000000007E
:102B50000000000000303000000000000000000015
:102B600080601804006018060100000000E01008F2
:102B70000810E000000F102020100F00001010F8C7
:102B8000000000000020203F202000000070080806
:102B90000888700000302824222130000030088886
:102BA000884830000018202020110E000000C020AE
:102BB00010F8000000070424243F240000F80888CF
:102BC000880808000019212020110E0000E010885C
:102BD00088180000000F112020110E00003808088E
:102BE000C83808000000003F00000000007088089E
:102BF00008887000001C222121221C0000E010081F
:102C00000810E0000000312222110F00000000C077
:102C1000C000000000000030300000000000008014
:102C20000000000000008060000000000000804004
:102C3000201008000001020408102000404040401D
:102C40004040400004040404040404000008102070
:102C500040800000002010080402010000704808B5
:102C60000808F0000000003036010000C030C8281D
:102C7000E810E0000718272423140B000000C038D8
:102C8000E0000000203C23020227382008F8888852
:102C900088700000203F202020110E00C03008085E
:102CA00008083800071820202010080008F8080835
:102CB0000810E000203F202020100F0008F888882E
:102CC000E8081000203F20202320180008F88888FA
:102CD000E8081000203F200003000000C030080872
:102CE0000838000007182020221E020008F80800FB
:102CF0000008F808203F210101213F20000808F8C2
:102D0000080800000020203F2020000000000808E4
:102D1000F8080800C08080807F00000008F888C0A4
:102D200028180800203F20012638200008F8080055
:102D300000000000203F20202020300008F8F8008C
:102D4000F8F80800203F003F003F200008F830C09E
:102D50000008F808203F200007183F00E01008088E
:102D60000810E0000F10202020100F0008F80808BD
:102D70000808F000203F210101010000E0100808D0
:102D80000810E0000F18242438504F0008F88888F5
:102D900088887000203F2000030C302000708808D5
:102DA000080838000038202121221C00180808F8E3
:102DB000080818000000203F2000000008F8080064
:102DC0000008F808001F202020201F000878880035
:102DD00000C83808000007380E010000F80800F8A5
:102DE0000008F800033C0700073C0300081868804F
:102DF0008068180820302C03032C30200838C800C5
:102E0000C83808000000203F200000001008080813
:102E1000C83808002038262120201800000000FEB5
:102E2000020202000000007F40404000000C30C061
:102E300000000000000000010638C000000202028D
:102E4000FE000000004040407F000000000004023F
:102E5000020204000000000000000000000000006A
:102E6000000000008080808080808080000202045A
:102E70000000000000000000000000000000808052
:102E8000808000000019242222223F2008F80080C0
:102E900080000000003F112020110E000000008083
:102EA00080800000000E1120202011000000008012
:102EB0008088F800000E112020103F200000808044
:102EC00080800000001F222222221300008080F058
:102ED000888888180020203F202000000000808083
:102EE00080808000006B94949493600008F80080C8
:102EF00080800000203F210000203F200080989823
:102F0000000000000020203F202000000000008082
:102F10009898000000C08080807F000008F80000C2
:102F200080808000203F24022D302000000808F817
:102F3000000000000020203F2020000080808080D2
:102F400080808000203F20003F20003F8080008064
:102F500080800000203F210000203F200000808072
:102F600080800000001F202020201F008080008023
:102F70008000000080FFA12020110E0000000080D2
:102F800080808000000E112020A0FF8080808000C3
:102F90008080800020203F212000010000008080F0
:102FA000808080000033242424241900008080E0E5
:102FB000808000000000001F2020000080800000B2
:102FC00000808000001F202020103F208080800093
:102FD0000080808000010E300806010080800080A3
:102FE000008080800F300C030C300F0000808000C8
:102FF000808080000020312E0E31200080808000F3
:103000000080808080818E701806010000808080A2
:10301000808080000021302C222130000000000040
:10302000807C020200000000003F404000000000E1
:10303000FF00000000000000FF0000000002027C12
:10304000800000000040403F000000000006010139
:103050000202040400000000000000000000000064
:103060000000000000000000000000000000000060
:103070000000000000000000000000000000000050
:103080000000000000F0F0F0000000000000000070
:1030900000017F010000000000000000001C1C1C5B
:1030A0000000000000008060301C8C60301C0C00B0
:1030B0000000000000000000000000000000000010
:1030C0000000000000000000000000E00000000020
:1030D00000E000000086E69F86868686E69F8600E2
:1030E00000011F01010101011F010100000080C05A
:1030F0006020F820E0C00000000003070C18FF70FB
:10310000E18100000000070F10107F100F07000082
:103110008060206080000000E02000000F30203040
:103120009F70DC371030C0000000100E030007183D
:10313000101807000000C02020E0C00000000000C0
:1031400080E01F38E88703C43C040000070F181014
:10315000100B070D1010080000808C4C3800000088
:10316000000000000000000000000000000000005F
:10317000000000000000000000000000000000004F
:10318000000080E0300804000000000000FEFF01A5
:1031900000000000000000000000030F18204000A5
:1031A00000040830E0800000000000000000000083
:1031B00001FFFE0000000000004020180F03000087
:1031C00000000000000000000000C000000000003F
:1031D000004266663C18FF183C666642000000002C
:1031E000000003000000000000000000000080005C
:1031F00000000000001010101010FF101010101030
:1032000000000000000003000000000000000000BB
:1032100000000000000000000000000000000000AE
:103220000000000000808C4C38000000000000000E
:10323000000000000000000000000000001010105E
:10324000101010101010100000000000000000000E
:10325000000000000000000000000000000000006E
:1032600000000000000000000000000000001C1C26
:103270001C00000000000000000000000000000032
:10328000E0380C000000000080701C03000000000B
:103290000060380E0100000000000000000080C047
:1032A00060202060C080000000FEFF0100000000E0
:1032B00001FFFE000001070E181010180E07010094
:1032C0000000808080C0E0000000000000000000DE
:1032D00000FFFF000000000000001010101F1F1072
:1032E000101000000080402020202060C0800000DE
:1032F00000030300804020381F070000001C1A193B
:1033000018181818181F00000080C020202060C066
:1033100080000000000303001010182FE780000059
:1033200000070F10101010180F0700000000000019
:103330000000C0E0F000000000C0B088868180FF7F
:10334000FF808000000000000010101F1F10100000
:103350000000E060606060606060000000003F109E
:1033600008080818F0E0000000070B101010101CEF
:103370000F030000000080C040202020E0C00000BB
:1033800000FCFF211008080818F0E0000001070CFD
:1033900018101010080F03000000C0E060606060AB
:1033A00060E06000000003000000E018070000007B
:1033B00000000000001F1F00000000000080C0602F
:1033C0002020202060C080000087EF2C18183030AB
:1033D00068CF830000070F0810101010180F0700A7
:1033E0000000C0C020202020C0800000001F3F60DF
:1033F0004040402010FFFE0000000C1C1010100880
:103400000F030000000000000000000000000000AA
:1034100000000000000E0E0E000000000000000082
:10342000001C1C1C00000000000000000000000048
:103430000000000000000000000C0C000000000074
:1034400000000000005838000000000000000000EC
:10345000000000804020100000001028448201007D
:10346000000000000000000000000102040810003D
:1034700000000000000000000000000000848484C0
:1034800084848484848484000000000000000000A0
:10349000000000000000102040800000000000003C
:1034A0000000000000000182442810000000100805
:1034B000040201000000000000C0202010101010C5
:1034C00030E0C0000003030000F010080C07030008
:1034D000000000001C1C1C0000000000000000C0D8
:1034E000406020202040C00000FCFF01F00E03C11E
:1034F000FE03807F0001070E08111110110904025C
:103500000000000080E0E000000000000000807C7F
:103510004340477FF880000010181F100000000093
:10352000131F1C1020E0E02020202060C08000003D
:1035300000FFFF10101010182FE78000101F1F1041
:1035400010101010180F0700000080C0402020202D
:103550002060E00000FCFF0100000000000001000E
:103560000001070E181010100804030020E0E020EE
:1035700020202040C080000000FFFF00000000006D
:1035800001FFFE00101F1F10101018080E07010089
:1035900020E0E020202020202060800000FFFF109D
:1035A0001010107C00000000101F1F1010101010D1
:1035B0001018060020E0E02020202020606080001D
:1035C00000FFFF101010107C00000100101F1F10E2
:1035D0000000000000000000000080C060202020EB
:1035E00040E0000000FCFF0100004040C0C140403E
:1035F0000001070E181010100F0F000020E0E0204F
:103600000000000020E0E02000FFFF10101010106C
:1036100010FFFF00101F1F1000000000101F1F10E0
:103620000000202020E0E02020200000000000001A
:1036300000FFFF000000000000001010101F1F100E
:103640001010000000000000202020E0E0202020DA
:1036500000000000000000FFFF0000000060E080AC
:103660008080C07F3F00000020E0E020000020A01C
:103670006020200000FFFF30187CE3C00000000045
:10368000101F1F10000001131F1C181020E0E02065
:10369000000000000000000000FFFF00000000002C
:1036A00000000000101F1F1010101010101806004E
:1036B00020E0E0E000000000E0E0E02000FF013F4B
:1036C000FEC0E01E01FFFF00101F1000031F0300DB
:1036D000101F1F1020E0E0C0000000000020E020CC
:1036E00000FF0003071C78E08000FF00101F10009F
:1036F00000000000030F1F00000080C06020206059
:10370000C080000000FEFF010000000000FFFE007E
:103710000001070E181010180C07010020E0E0202F
:103720002020202060C0800000FFFF2020202020DB
:10373000301F0F00101F1F100000000000000000CD
:10374000000080C060202060C080000000FEFF01FB
:103750000000000000FFFE000001070E1111133CE5
:103760007C67210020E0E0202020202060C0800035
:1037700000FFFF101030F0D0080F0700101F1F10BF
:10378000000000030F1C10100080C06020202020CB
:103790004040E00000070F0C1818303060E0810056
:1037A000001F0C0810101010180F07008060202058
:1037B00020E0E020202060800100000000FFFF00EA
:1037C0000000000100000000101F1F10000000009A
:1037D00020E0E020000000000020E02000FFFF00CB
:1037E000000000000000FF0000070F18101010106C
:1037F000100807002060E0E02000000020E06020CA
:103800000000077FF88000807C03000000000000BB
:10381000071F1C070000000020E0E02000E0E0207F
:103820000020E0200007FFF8E01FFFFCE01F000081
:103830000000031F0300011F03000000002060E0E0
:10384000A0000020E0602000000000038F7CF8C68C
:10385000010000000010181E130001171F181000AF
:103860002060E0E02000000020E060200000010770
:103870003EF8E0180700000000000010101F1F10A5
:103880001000000000806020202020A0E0E0200048
:1038900000000000C0F03E0F0300000000101C1FDD
:1038A00017101010101806000000000000FC04049F
:1038B000040404000000000000FF000000000000FD
:1038C00000000000007F404040404000000010E049
:1038D000000000000000000000000000031C6080E9
:1038E0000000000000000000000000030C708000D9
:1038F00000000404040404FC0000000000000000B8
:10390000000000FF00000000000040404040407FF9
:103910000000000000000010080C040C081000005B
:103920000000000000000000000000000000000097
:103930000000000000000000000000000000000087
:103940000000000000000000000000000000000077
:103950008080808080808080808080800000000463
:103960000408080000000000000000000000000043
:103970000000000000000000000000000000000047
:10398000000000000000000000000000000098D8C7
:1039900044642424FCF80000000F1F1810101008C5
:1039A0001F1F10180020E0F00000000000000000C1
:1039B0000000FFFF180804040CF8F00000001F0FBF
:1039C00018101010180F0300000000000000000085
:1039D0000000000000E0F8180404043C3800000077
:1039E00000030F0C1010101008060000000000006B
:1039F00000000020E0F0000000E0F81C04040408CF
:103A0000FFFF000000030F18101010081F0F080020
:103A10000000000000000000000000000000E0F8CE
:103A2000484444444C7870000000030F0C181010F8
:103A3000100804000000000080C0602020E0C000EA
:103A400000040404FFFF040404040000000010103C
:103A50001F1F1010100000000000000000000000F8
:103A600000000000000070F88C04048CF874040C52
:103A7000007076CF8D8D8D89C87870000020E0F0C1
:103A800000000000000000000000FFFF0804040424
:103A9000FCF8000000101F1F100000101F1F100076
:103AA000000000000060600000000000000004044E
:103AB00004FCFC000000000000001010101F1F108C
:103AC0001010000000000000000000606000000016
:103AD00000000000040404FCFC0000000000C0C062
:103AE0008080C07F3F0000000020E0F00000000068
:103AF000000000000000FFFF80C0F41C0404000070
:103B000000101F1F1100031F1C10100000002020B8
:103B100020E0F000000000000000000000FFFF00B7
:103B20000000000000001010101F1F1010100000F7
:103B300000000000000000000000000004FCFC0881
:103B400004FCFC0804FCFC00101F1F10001F1F10C9
:103B5000001F1F1000000000000000000000000017
:103B60000004FCFC08080404FCF8000000101F1FFF
:103B7000100000101F1F10000000000000000000D7
:103B80000000000000E0F0180C04040C18F0E00045
:103B900000030F0C101010100C0F030000000000A9
:103BA00000000000000000000004FCFC0804040405
:103BB0000CF8F0000080FFFF889010101C0F03002D
:103BC00000000000000000000000000000E0F81C01
:103BD00004040408F8FC000000030F18101090887B
:103BE000FFFF800000000000000000000000000057
:103BF000040404FCFC100804040C0C001010101F3A
:103C00001F10101000000000000000000000000065
:103C10000000000000003078CCC48484840C1C00B8
:103C200000001E1810101011190F060000000000EF
:103C300000C000000000000000040404FFFF0404B2
:103C400004000000000000000F1F1010100C000006
:103C50000000000000000000000000000004FCFE66
:103C600000000004FCFE000000000F1F18101008E8
:103C70001F0F08000000000000000000000000000E
:103C800000040C3CFCC40000C43C0C040000000018
:103C9000010F1E0E010000000000000000000000E7
:103CA00000000000043CFCC400E47CFC84807C0434
:103CB0000000071F070000071F07000000000000AA
:103CC00000000000000000000004041C7CE4C0347C
:103CD0001C0404000010101C1601131F1C181000F7
:103CE00000000000000000000000000000040C3C88
:103CF000FCC400C43C0404000000C080C1370E01B5
:103D000000000000000000000000000000000000B3
:103D100000001C0404C4F47C1C0400000000101CFF
:103D20001F17111010180E0000000000000000F80E
:103D30000C04000000000000001028EF000000004C
:103D4000000000000000003F604000000000000094
:103D50000000FF0000000000000000000000FF0065
:103D600000000000000000000000FF000000000054
:103D70000000040CF800000000000000000000003B
:103D8000EF28100000000000000040603F0000002D
:103D9000000000000018060202040810202030086D
:103DA0000000000000000000000000000000000013
:103DB00000000000000000000000F010101010FFD4
:103DC00010101010F000000000000F04040404FFA5
:103DD000040404040F0000004040405F5555557531
:103DE0005555555F404040000040200F09498979F2
:103DF0000909090F2040000000FE02424ACA4A4A4F
:103E0000CA4A4A4202FE000000FF40504C43404074
:103E10004F50505C40FF00000000F888888888FF01
:103E200088888888F800000000001F080808087FBC
:103E3000888888889F80F00080828282828282E2E5
:103E4000A2928A8682808000000000000040807F6D
:103E50000000000000000000101010FF1090088803
:103E60008888FF88888808000444827F0180804019
:103E7000432C1028468180000010101010D030FF15
:103E800030D0121C1010000010080402010000FFC6
:103E9000000001020408100004040484E43C272408
:103EA000242424E40404040004020100FF09090995
:103EB0000949897F0000000000FE225A8600FE9218
:103EC00092929292FE00000000FF04080700FF405B
:103ED00020030C142241400000804020180680007E
:103EE00007182040800000000100207028262120B3
:103EF00020243860000101000010129292929292E8
:103F000092121202FE0000000000003F101010107C
:103F10003F0040807F000000000000C08080808063
:103F2000808080FC84808080808080C0C000000011
:103F3000000000FF7F404040404040FF4040404084
:103F4000404040FF7F000000000000000000000033
:103F50000000007F70000000000000000000000072
:103F6000000000000000000000000000000000FC55
:103F7000F800000000000000000000000000000049
:103F800000000000FFFE020202020202020202FF23
:103F9000FF020202020202020202FF03000000000E
:103FA000000000001F1F040404040404040404FFB0
:103FB000FF0404040404040404041F0000000000BF
:103FC0000000000000000000000000000000007F72
:103FD0003F000000000000000000000000000000A2
:103FE00000000000000000000000000000000000D1
:103FF00000000000000000000000000000F8F8F0E1
:10400000F070200000000000000000000000000030
:1040100000000000000000000000000000000000A0
:104020000000000000000000800000000000000010
:1040300000000000000000000000000000FFFFFF83
:10404000FF00000000000000000000000000000071
:104050000000000080800000000000000000000060
:10406000000000000000000000FFFFFE060606063C
:1040700006060606060606060606060606FFFFFFF5
:10408000FF060606060606060606060606060606D7
:10409000060606FFFFFFFF07020000000000000009
:1040A000000000000000000000FFFFFF0000000013
:1040B00000000000000000000000000000FFFFFF03
:1040C000FF000000000000000000000000000000F1
:1040D000000000FFFFFFFF000000000000000000E4
:1040E000000000000000000000FFFFFF1818181873
:1040F00018181818181818181818181818FFFFFF8B
:10410000FF18181818181818181818181818181848
:10411000181818FFFFFFFF0000000000000000005B
:10412000000000000000000002010100000000008B
:1041300000000000000000000000000000FFFFFF82
:10414000FF00000000000000000000000000000070
:10415000000000010100000000000000000000005D
:10416000000000000000000000000000000000004F
:1041700000000000000000000000000000FFFFFF42
:10418000FF00000000000000000000000000000030
:10419000000000000000000000000000000000001F
:1041A000000000000000000000000000000000000F
:1041B000000000000000000000000000001F1F0FB2
:1041C0000F000000000000000000000000000000E0
:1041D00000000000000000000000000000000000DF
:1041E000004200080000002024000000E014000845
:1041F000244200082400002084180000F014000865
:104200000000000000C2EB0B0000000000000000F6
:10421000000000000000000000000000000000009E
:04422000000000009A
:04000005080001AD41
:00000001FF
