:020000040800F2
:1000000088260020C5010008051C0008DB13000835
:10001000011C0008110E000829280008000000003B
:10002000000000000000000000000000A521000802
:10003000410E000800000000951C0008DD250008A6
:10004000DF010008DF010008DF010008DF01000810
:10005000DF010008DF010008DF010008DF01000800
:10006000DF010008DF010008DF010008DF010008F0
:10007000DF010008DF010008DF010008DF010008E0
:10008000DF010008DF010008DF010008DF010008D0
:10009000DF010008DF010008DF010008DF010008C0
:1000A000DF010008DF010008DF010008DF010008B0
:1000B000DF010008DF010008DF010008DF010008A0
:1000C000DF010008DF010008DF010008DF01000890
:1000D000DF01000859270008BD270008DF010008DC
:1000E000DF010008DF010008DF010008DF01000870
:1000F000DF010008DF010008DF010008DF01000860
:10010000DF010008DF010008DF010008DF0100084F
:10011000F5260008DF010008AD260008DF01000811
:10012000DF010008DF010008DF010008DF0100082F
:10013000DF010008DF010008DF010008DF0100081F
:10014000DF010008DF010008DF010008DF0100080F
:10015000DF010008DF010008DF010008DF010008FF
:10016000DF010008DF010008DF010008DF010008EF
:10017000DF010008DF010008DF01000800000000C7
:10018000DF010008DF010008DF010008DF010008CF
:10019000DF010008DF010008DF01000800000000A7
:1001A000DF010008DF010008DF010008DFF810D0E0
:1001B00000F06AFC0048004739370008AFF30080C0
:1001C000882600200648804706480047FEE7FEE7ED
:1001D000FEE7FEE7FEE7FEE7FEE7FEE7FEE7FEE7F7
:1001E000E5250008AD010008D2B201E000F8012BBE
:1001F000491EFBD270470022F6E710B513460A46A7
:1002000004461946FFF7F0FF204610BD30B50546FD
:100210002A460B4612F8010B13F8014B08B1A04215
:10022000F8D01CB1002802D06D1CF1E7284630BD83
:10023000421C10F8011B0029FBD1801A70470000F6
:100240000FB400B58DB010A909900B9000914FF03C
:10025000FF300A9000200C90054806900548079052
:100260006A4609A80F9900F01DFB0DB05DF814FB5C
:10027000C1080008DF0800082DE9FF5F1D464FF0A8
:10028000FF3BD5E9014691465F464FF00008A9695A
:100290007F1C01988847296A824688470028F6D142
:1002A000BAF1FF3F0CD024F4C064002E19DD6006C3
:1002B00014D5BAF12B0F09D0BAF12D0F0ED103E0EE
:1002C000584604B0BDE8F09F44F48064A9697F1CDF
:1002D00001988847761E8246002E02DDBAF1300F63
:1002E00003D0B9F1000F26D032E0A969761E44F49C
:1002F00000747F1C019888478246002E05DDBAF104
:10030000780F06D0BAF1580F03D0B9F1000F10D012
:100310001EE0B9F1000F02D0B9F1100F18D1A96990
:10032000761E24F400747F1C0198884782461020B2
:1003300002E0082000E00A20814609E008FB0908E5
:10034000A969761E44F400747F1C01988847824690
:10035000002E05DD4946504600F08FFA0028EDDA00
:10036000E96901988847A00502D46FF00100A8E769
:10037000E00725D1600613D5600502D5C8F100005D
:1003800000E0404629680A1D2A600968220501D557
:10039000087015E0220701D5088011E008600FE021
:1003A0002868011D29600068210502D580F80080B9
:1003B00006E0210702D5A0F8008001E0C0F8008027
:1003C00038467EE72DE9FE4F804681EA0300C00FE4
:1003D0000C46009021F0004123F00045B8EB0200EC
:1003E000A94105D24046214690461C460B4602468E
:1003F00023F00040104347D0270DC7F30A00C3F392
:100400000A510290401A019040286BDAC3F313009E
:1004100040F4801B0098924620B10023D2EB030ADF
:1004200063EB0B0B01985946C0F14002504600F0B7
:10043000F3F906460D4650465946019A00F00BFA6C
:1004400010EB08006141002487EA115284EAE77347
:100450001A4340D0009A62B3019A012A4FEA075228
:1004600015DC001B61EB02014FF0004202EA07526B
:10047000CDE90042001C41F5801132462B4600F0C8
:1004800085FA03B0BDE8F08F40462146F9E7001B2E
:1004900061EB0201001C41F5801300185B4120183C
:1004A000A2F5001747EB030140EAD570B6196D417C
:1004B00011E06D084FEA360645EAC0754FEA07526B
:1004C000001B61EB0201001C41F5801149084FEA55
:1004D00030000019514132462B4603B0BDE8F04FC1
:1004E00000F045BA0098012240000023D0EB020240
:1004F00063EBE073009821464FEAE074B8EB00002C
:1005000061EB0401E9E783F000435BE781F0004120
:1005100058E72DE9FE4F81EA030404F0004421F07E
:10052000004100944FF0000B23F0004350EA010417
:100530005ED052EA03045BD0C3F30A54C1F30A55F8
:100540002C44A4F2F3340194A0FB0254C1F3130130
:1005500041F48011C3F3130343F4801301FB0244FD
:1005600000FB034E840A970A44EA815447EA835702
:10057000A4FB076802958D0A05FB07854FEA932CBB
:1005800004FB0C542705029D4FEA065847EA16372C
:10059000B5EB08056EEB070C870E920E47EA811744
:1005A00042EA8312A7FB0201B6EB0B0164EB0004E5
:1005B0002B0D43EA0C335E1844EB1C50DA465146CF
:1005C000E7FB0201C5F313044FEA0B3343EA14536C
:1005D0004FEA0432019C43EA0603A4F10C0402949E
:1005E000009CCDE900B400F0D1F903B0BDE8F08F74
:1005F00000200146F9E72DE9F04D81EA030404F0FB
:10060000004B21F0004514464FF0000A23F0004152
:1006100050EA050220D054EA01021DD0C5F30A5762
:100620000246C5F31303C1F31300C1F30A5640F4A5
:10063000801543F48013A7EB0608101BD64608F27A
:10064000FD3873EB050002D308F1010801E09218B0
:100650005B41B8F1000F03DA00200146BDE8F08DE0
:1006600000204FF48011064684460EE0171B73EB02
:10067000050705D3121B63EB050306434CEA010C87
:1006800049084FEA300092185B4150EA0107EDD16A
:1006900052EA030012D082EA040083EA050108430B
:1006A00005D0101BAB4106D20122002306E0002238
:1006B0004FF0004302E06FF0010253101AEB060006
:1006C0004CEB085110EB0A0041EB0B01BDE8F04D7B
:1006D00000F04DB90EB540F2334102910021CDE951
:1006E00000110A460B4600F051F903B000BD70B589
:1006F000C1F30A5201F000450024C1F3130140F296
:10070000FF3341F480119A4201DA002070BD40F2BB
:1007100033439A42A2F2334203DC524200F08BF898
:1007200000E090402C43F1D0404270BD00F0004208
:1007300030F000400AD0C10D01F56071C0F3160021
:1007400042EA0151C20840071143704700200146A8
:10075000704701F0004330B421F0004150EA01023B
:1007600006D00A0DA2F56072C1F31301002A02DC63
:1007700030BC00207047440F44EAC104C100E018B7
:1007800030BC00EBC25000F0BBB830B50B460146A0
:1007900000202022012409E021FA02F59D4205D320
:1007A00003FA02F5491B04FA02F52844151EA2F1CA
:1007B0000102F1DC30BD2DE9F05F054600209246D4
:1007C0009B4688460646814640241BE02846414613
:1007D0004746224600F02FF853465A46C01A914128
:1007E00010D311461846224600F016F82D1A67EB72
:1007F00001084F4622460120002100F00DF817EBBA
:1008000000094E41201EA4F10104DFDC48463146B8
:100810002A464346BDE8F09F202A04DB203A00FA2E
:1008200002F1002070479140C2F1200320FA03F347
:10083000194390407047202A04DB203A21FA02F045
:100840000021704721FA02F3D040C2F1200291400A
:10085000084319467047202A06DBCB17203A41FA95
:1008600002F043EAE07306E041FA02F3D040C2F13D
:10087000200291400843194670473A2800D2303888
:1008800020F02002412A01D3A2F13700884201D38F
:100890004FF0FF3070470000026811441378016088
:1008A00018467047D1600449516104491162002122
:1008B0001161114600F000B999080008AD0A00085E
:1008C000426842B1016811F8013B23B1521EC0E9F0
:1008D0000012184670470121C160881E70474268A7
:1008E0005AB1C368016843B983688B4205D0491E79
:1008F000521CC0E90012002070474FF0FF307047D3
:100900000029A8BF7047401C490008BF20F0010023
:10091000704710B4B0FA80FC00FA0CF050EA010401
:1009200004BF10BC704749B1CCF1200421FA04F493
:1009300011FA0CF118BF012121430843A3EB0C016C
:10094000CB1D4FEA00614FEA102042BF002010BCCF
:10095000704700EBC35010440029A4BF10BC70477F
:10096000401C490008BF20F0010010BC704710B5C2
:10097000141E73F1000408DA401C41F100019218C2
:100980005B411A4301D120F0010010BD2DE9F04D6B
:1009900092469B4611B1B1FA81F202E0B0FA80F2C0
:1009A00020329046FFF738FF04460F4640EA0A001F
:1009B00041EA0B0153465A46084313D0114653EA05
:1009C000010019D0C8F140025046FFF734FF054638
:1009D0000E46504659464246FFF71EFF084305D0D3
:1009E000012004E020463946BDE8F08D0020054393
:1009F00046EAE0762C4337430A986305E40AA0EB05
:100A000008000022FD0A44EA47540A3002D50020BB
:100A10000146E9E7010510196941DDE908450019BA
:100A20006941BDE8F04DA2E7C1F30A52C1F31301D9
:100A300040F2FF3341F480119A4202DA002001466D
:100A4000704740F233439A42A2F2334202DC5242F0
:100A5000FFF7F1BEFFF7E0BE30B5041E71F10004F0
:100A600004DB4FF00044404264EB0101141E73F1BB
:100A7000000405DB1C464FF00043524263EB0403C5
:100A8000994208BF904230BD064C074D06E0E06831
:100A900040F0010394E8070098471034AC42F6D3C5
:100AA000FFF788FBC46C0008E46C0008C0B24FF488
:100AB000F05100F099B900002DE9F34F8BB04FF0E1
:100AC000000801F10C000C464FF0010B46460DF1F9
:100AD000080A01906269012101989047051E2DD0F6
:100AE000252D2CD0216A8847C0B162690121019867
:100AF0009047216A88470028F7D1411E6269019812
:100B0000904700E0761CA1690B988847216A8847C6
:100B10000028F7D1E1690B988847DBE7A1690B98BA
:100B200088470746A84201D1761CD3E7E1690B98B4
:100B300088477F1C02D1B8F1000F6FD047E1002732
:100B400062693D463946019890472A2804D1626976
:100B50000121019890470125DFF8889262690121FF
:100B600001989047A0F130010A290AD24F45E5DCEF
:100B700007EB870100EB4107303FDFD445F010055C
:100B8000ECE7E90601D46FF000476C280AD04C2846
:100B900014D0682815D06A280DD074281CD07A2863
:100BA0001AD01DE062690121019890476C2802D09B
:100BB00045F0040514E045F002050DE045F0200580
:100BC0000AE06269012101989047682802D045F047
:100BD000080505E045F40065626901210198904728
:100BE000C4E9015765283DD019DC58287AD00CDCBF
:100BF000452837D004DC252826D0412831D131E0E2
:100C000046282FD047282CD12CE05B2877D06128AC
:100C100028D063287CD0642823D15AE0D1E06F2803
:100C200048D008DC66281DD067281BD0692821D051
:100C30006E2816D127E0702845D0732868D0752813
:100C400047D078280DD14DE0A1690B98884705461B
:100C500025283FF469AFE1690B9888476D1C3FF484
:100C60006AAFB4E023466A466FF001000B99AFF318
:100C700000809FE045F040006060A80723464FF0E9
:100C8000000236D43EE0E8077FF447AF2068011D3C
:100C900021600068290501D506701BE7290701D5E9
:100CA000068017E7A90703D5F117C0E9006111E72E
:100CB00006600FE745F040006060A80723464FF04C
:100CC000080216D41EE040F60E0125EA010060601D
:100CD00016E045F040006060A80723464FF00A0286
:100CE00007D40FE045F040006060A80708D5234610
:100CF00010226FF001000B99AFF300805AE007E07B
:100D0000234610226FF001000B99FFF7B5FA51E06E
:100D10004FF000094F464B46632802D05B2807D0AE
:100D200041E02079C00601D40120A06001273AE00B
:100D300062690121019890475E2805D14FF00109B1
:100D40006269494601989047216939B900210A46EC
:100D5000534643F82120491C0829FADBB0B3216926
:100D600069B9C11700EBD16253110AEB830122F07C
:100D70001F02821A01200B68904003430B606269D6
:100D80000121019890475D28E8D1B9F1000F09D001
:100D90000020514651F82020D24341F82020401C29
:100DA0000828F7DB02AB224600976FF001000B9991
:100DB000AFF3008000280CDA401C08D1BBF1000F13
:100DC00005D04FF0FF300DB0BDE8F08FFFE7404693
:100DD000F9E7E90701D108F1010806444FF0000BDB
:100DE00078E60000CCCCCC0C7F2801D9002208E0AA
:100DF000064A02EB5002C007127800D1120902F035
:100E00000F0201209040084070470000E26900088E
:100E100000BFFEE7FF2005E000230146421ED0B2DE
:100E2000044A53540028F7D10021034A1170034AA1
:100E30001170704788110020790000207800002090
:100E4000704700000C48006820F080700A49086074
:100E50000846006840F0807008600848006820F08C
:100E60000100064908600846006840F0010008607B
:100E70000020486070470000FCED00E0001000E03A
:100E8000F8B506460F4614461D464FF6FF703B4622
:100E9000224639460090304600F036FA4FF6FF7091
:100EA0002B46324639460090304600F02DFA48F283
:100EB00010406A1E93B291B2721C009090B222460A
:100EC00000F022FA44F208202B46224629460090E0
:100ED000304600F019FA48F21040631E9AB27B1CAB
:100EE00099B2631E009098B22B4600F00DFA44F2BE
:100EF00008202B46224639460090204600F004FA8E
:100F0000F8BD00002DE9F84F0746884693469A46FB
:100F1000DDF828900097B3E099F8000080283DDACA
:100F200099F800600D2E05D1009F08F110001FFAFE
:100F300080F830E0202E03DDA6F1200086B200E02C
:100F40000026002422E000251CE004EB0610504996
:100F5000085C80212941084040B108EB040291B2AD
:100F60007A1990B25A4600F02CFA09E0D34507D01E
:100F700008EB040291B27A1990B2524600F021FABD
:100F8000681CC5B2082DE0DB601CC4B2102CDADB93
:100F900007F1080087B209F1010971E0002668E055
:100FA00006EB06103B4911F8100099F80010884232
:100FB0005DD106EB0610374901EB4000407899F807
:100FC0000110884253D100244FE0002520E006EBB9
:100FD0000610304901EB4000801C10F814108020EE
:100FE0002841014041B108EB040291B27A1990B254
:100FF0005A4600F0E6F909E0D34507D008EB0402B1
:1010000091B27A1990B2524600F0DBF9681CC5B271
:10101000082DDCDB002524E006EB06101D4901EB62
:101020004000801C012101EB4401405C80212941EA
:10103000084048B108EB040291B27A19083290B224
:101040005A4600F0BEF90AE0D34508D008EB040286
:1010500091B27A19083290B2524600F0B2F9681C87
:10106000C5B2082DD8DB601CC4B2102CADDB701CDF
:1010700086B23C2E94DB09F1020907F1100087B219
:1010800099F8000000287FF447AFBDE8F88F000012
:10109000D84E00084A5C00082DE9F05F06468846F5
:1010A00093469A46DDF82890E2E099F800008028FF
:1010B00035DA99F80070202F03DDA7F1200087B200
:1010C00000E00027002522E000241CE005EB0710CB
:1010D0006B49095C80202041014041B108EB0502C9
:1010E00091B2321990B25A4600F06BF909E0D3453B
:1010F00007D008EB050291B2321990B2524600F0C7
:1011000060F9601CC4B2082CE0DB681CC5B2102D6D
:10111000DADB09F1010906F1080086B2A8E0002730
:101120009EE007EB870000EB4710564911F81000CE
:1011300099F8001088427CD107EB870000EB47103C
:10114000504901EB4000407899F801108842F2D1F3
:10115000002580E0002423E007EB870000EB471028
:10116000484901EB4000801C05EB4501405C8021B3
:101170002141084040B108EB050291B2321990B20A
:101180005A4600F01EF909E0D34507D008EB0502E6
:1011900091B2321990B2524600F013F9601CC4B2F9
:1011A000082CD9DB002426E007EB870000EB471072
:1011B000344901EB4000801C05EB4501491C405CB3
:1011C00080212141084048B108EB050291B2321953
:1011D000083290B25A4600F0F4F80AE0D34508D03D
:1011E00008EB050291B23219083290B2524600F073
:1011F000E8F8601CC4B2082CD6DB002427E007EB1B
:10120000870000EB47101F4901EB4000801C05EBF5
:101210004501891C405C80212141084050B108EB08
:10122000050291B23219103290B25A4600F0C9F854
:101230000BE013E0D34508D008EB050291B2321958
:10124000103290B2524600F0BCF8601CC4B2082CB8
:10125000D5DB681CC5B2182DFFF67CAF781C87B2B1
:101260001A2FFFF65EAF09F1020906F1180086B2E7
:1012700099F8000000287FF418AFBDE8F09F000047
:10128000D84E0008646400082DE9F05F07468846E0
:1012900092469946002531E000242BE019490A982E
:1012A00001EBC01000EB850010F804B000261DE033
:1012B0008020304100EA0B0050B108EB050291B2EA
:1012C00007EBC402324490B2524600F07AF80BE0C9
:1012D000CA4509D008EB050291B207EBC4023244BB
:1012E00090B24A4600F06DF8701CC6B2082EDFDBE3
:1012F000601CC4B2042CD1DB681CC5B2202DCBDB32
:10130000BDE8F09FC95400082DE9FF4F83B0804627
:1013100089464946404600F060FB0598A0EB080569
:101320000698A0EB0906002D02DB0120029003E0E5
:101330004FF0FF3002906D42002E02DB0120019041
:1013400003E04FF0FF30019076424FEA450A4FEA42
:10135000460BB54219DDABEB0504002712E0494608
:101360004046109A00F02DF8002C05DBA4EB0A048F
:10137000019848441FFA80F95C44029840441FFADF
:1013800080F87F1CAF42EADD18E0AAEB06040027D4
:1013900012E049464046109A00F013F8002C05DB95
:1013A000A4EB0B04029840441FFA80F854440198BF
:1013B00048441FFA80F97F1CB742EADD07B0BDE858
:1013C000F08F70B505460E4614463146284600F0AB
:1013D00004FB204600F028FB70BD00BFFEE70000C4
:1013E00070B500250A2400224FF480711B4802F0DA
:1013F00040F901225102194802F03BF94FF4007301
:1014000001220021154802F041F90122110213487E
:1014100002F02FF904E0601EC4B2052002F0D8F8F3
:101420004FF400710D4802F029F9012801D1002C78
:10143000F1D1002C03DC00F033F9012070BD002253
:101440004FF48071054802F014F94FF40073012243
:101450001146024802F01AF92846EFE7000402405C
:1014600070B500250A2400224FF480711E4802F056
:1014700000F9012251021D4802F0FBF84FF40073FD
:1014800001220021194802F001F9052002F0A0F81C
:1014900001221102144802F0ECF8052002F098F83D
:1014A00004E0601EC4B2052002F092F84FF400710F
:1014B0000E4802F0E3F8012801D1002CF1D1002CF4
:1014C00003DC00F015F9012070BD00224FF480719B
:1014D000054802F0CEF84FF400730122114603488C
:1014E00002F0D4F82846EFE700000240000802406E
:1014F00010B504464FF4007301221146194802F05A
:10150000C5F800224FF48071164802F0B2F80022AC
:101510004FF40071134802F0ACF8052002F058F8BF
:1015200034B900224FF400710E4802F0A2F804E032
:10153000012251020B4802F09CF8012211020948D5
:1015400002F097F8052002F043F800224FF4807172
:10155000044802F08EF801225102024802F089F894
:1015600010BD00000004024010B504464FF40073A3
:1015700001221146194802F089F800224FF48071C7
:10158000174802F076F800224FF40071134802F079
:1015900070F8052002F01CF834B900224FF40071F5
:1015A0000E4802F066F804E0012251020B4802F0F6
:1015B00060F8012211020A4802F05BF8052002F0EF
:1015C00007F800224FF48071054802F052F801221A
:1015D0005102024802F04DF810BD00000008024020
:1015E0000000024010B54FF4007301221146134869
:1015F00002F04CF801221102104802F03AF80022E1
:101600004FF400710D4802F034F8012251020B48EA
:1016100002F02FF8052001F0DBFF00224FF40071EB
:10162000064802F026F8052001F0D2FF00224FF410
:101630008071024802F01DF810BD00000004024055
:1016400010B54FF4007301221146134802F01EF842
:1016500001225102104802F00CF8052001F0B8FFF9
:10166000012211020D4802F004F8052001F0B0FF3C
:1016700000224FF40071084801F0FBFF052001F043
:10168000A7FF00224FF48071044801F0F2FF05200B
:1016900001F09EFF10BD0000000802400000024063
:1016A00010B54FF4007301221146104801F0EEFF0F
:1016B00000224FF480710D4801F0DBFF00224FF44F
:1016C00000710A4801F0D5FF01221102074801F01C
:1016D000D0FF052001F07CFF01225102034801F0F8
:1016E000C8FF052001F074FF10BD00000004024097
:1016F00010B54FF4007301221146104801F0C6FFE7
:1017000000224FF480710E4801F0B3FF00224FF425
:1017100000710A4801F0ADFF01221102084801F0F2
:10172000A8FF052001F054FF01225102034801F0F7
:10173000A0FF052001F04CFF10BD00000008024092
:101740000000024010B5002404210A4801F096FF71
:1017500001280ED1142001F02FFF00BF04210548FD
:1017600001F08CFF0128F9D0142001F025FF0120A1
:10177000044610BD0000024070B505460C462846E0
:1017800000F05CF9204600F04FF970BD70B50646D8
:10179000AF23DB220021084600F0FCF8002408E01B
:1017A000002503E0304600F03FF96D1CB02DF9D361
:1017B000641CDC2CF4D370BD10B500F025FC00F0E7
:1017C000D5F800211020FFF7D7FF00211120FFF7E7
:1017D000D3FF00211220FFF7CFFF00211320FFF7D6
:1017E000CBFF00211420FFF7C7FF282001F0E4FE03
:1017F00018211120FFF7C0FF41F221111220FFF73D
:10180000BBFF63211320FFF7B7FF43F661111420DC
:10181000FFF7B2FF4FF400611020FFF7ADFF0A2081
:1018200001F0CAFE41F238011120FFF7A5FF1E208A
:1018300001F0C2FE4FF480710220FFF79DFF1C21D2
:101840000120FFF799FF41F238010320FFF794FFD1
:1018500000210720FFF790FF40F608010820FFF75E
:101860008BFF4FF488510B20FFF786FF00210C20DF
:10187000FFF782FF40F201510F20FFF77DFF20218B
:101880001520FFF779FF00212020FFF775FF0021C9
:101890002120FFF771FF00213020FFF76DFFDB21D2
:1018A0003120FFF769FF00213220FFF765FF00219B
:1018B0003320FFF761FFDB213420FFF75DFF0021BC
:1018C0003520FFF759FFAF213620FFF755FF0021E4
:1018D0003720FFF751FFDB213820FFF74DFF0021B4
:1018E0003920FFF749FF40F203615020FFF744FF22
:1018F00040F60D015120FFF73FFF40F60C515220FA
:10190000FFF73AFF40F205215320FFF735FF40F281
:101910000A415420FFF730FF40F203715520FFF7D2
:101920002BFF4FF440715620FFF726FF4FF48061E4
:101930005720FFF721FF4FF430615820FFF71CFFBD
:1019400017215920FFF718FF40F201710F20FFF710
:1019500013FF12210720FFF70FFF322001F02CFEAA
:1019600041F217010720FFF707FF10BD10B5002255
:101970000121074801F07DFE642001F01DFE0122D7
:101980001146034801F075FE322001F015FE10BD2E
:10199000000C02402DE9F04104460F4615461E4654
:1019A00029463820FFF7E8FE21463920FFF7E4FEFC
:1019B00031463620FFF7E0FE39463720FFF7DCFEE0
:1019C00021462120FFF7D8FE39462020FFF7D4FE1C
:1019D000222000F033F8BDE8F08170B504460D46D2
:1019E00021462120FFF7C8FE29462020FFF7C4FE2C
:1019F000222000F023F870BD10B5044600224FF4F9
:101A00008051084801F035FE01221021054801F0FF
:101A100030FE204600F0ACFB01221103014801F02A
:101A200028FE10BD0004024010B504462012FFF746
:101A3000E3FFE0B2FFF7E0FF10BD000010B5044681
:101A400000224FF48051084801F013FE00221021BB
:101A5000054801F00EFE204600F08AFB012211032A
:101A6000014801F006FE10BD0004024010B54FF41D
:101A7000406002F0B3FB40F6024002F0AFFB4FF4CF
:101A80008073012211460C4801F000FE4FF4807370
:101A900002220121084801F020FE4FF400730122C8
:101AA0001146064801F0F2FD4FF4007302220121B5
:101AB000024801F012FE10BD000002400008024082
:101AC000F0B52DED088B83B004460D4600270020AD
:101AD00002900090019000269FED400AB0EE408AEF
:101AE000FFF7AEFD002141EA4401C8B200F08EFBD1
:101AF000FFF7B6FC284600F089FBFFF7B1FC00BFFA
:101B0000012001F059FDFFF79BFD012101EB44018C
:101B1000C8B200F07BFBFFF7A3FC0028F0D100F077
:101B2000F3F88DF808000020FFF71EFD00F0ECF838
:101B30008DF809000020FFF717FD00F0E5F88DF89B
:101B40000A000120FFF710FDFFF7D2FD6006000E2E
:101B50008DF800008DF80150012000EB4400C0B268
:101B60008DF802009DF808008DF803009DF809002B
:101B70008DF804000521684600F06EF89DF80A1003
:101B8000884220D19DF809009DF8081041EA002004
:101B900086B23046FEF79EFD41EC1B0B9FED100B0D
:101BA00053EC102BFEF7B5FC41EC1A0B9FED0E0B1E
:101BB00053EC102BFEF7A7FC41EC190BFEF7C9FD07
:101BC00008EE100A02E00AA001F02CF8B1EE0C0AAF
:101BD00038EE000A03B0BDEC088BF0BD0000000039
:101BE0007B14AE47E17A943F666666666612714082
:101BF0004552524F5220434F444520340D0A0000B5
:101C000000BFFEE77047000010B5002807DA0A079A
:101C1000140E054A00F00F031B1FD45403E00A07FB
:101C2000130E024A135410BD18ED00E000E400E06A
:101C3000BFF34F8F0648006800F4E0600549084391
:101C4000001D03490860BFF34F8F00BFFEE700008F
:101C50000CED00E00000FA0530B502460B4600200E
:101C600012E012F8014B604000210BE000F080040C
:101C700024B1072484EA4004E0B201E04406200EC7
:101C80004C1CE1B20829F1DB1C1EA3F10105EBB2EB
:101C9000E7D130BD7047000070B500244FF40073E9
:101CA00001220021174801F0F1FC00251FE000226D
:101CB0004FF48071134801F0DCFC052001F088FC32
:101CC000012211020F4801F0D4FC052001F080FC34
:101CD0006006040E4FF400710A4801F0CFFC08B111
:101CE00044F00104052001F073FC681CC5B2082D06
:101CF000DDDB00224FF48071024801F0BAFC20467F
:101D000070BD00000004024070B500244FF4007361
:101D100001220021174801F0B9FC00251FE0002234
:101D20004FF48071144801F0A4FC052001F050FC30
:101D300001221102104801F09CFC052001F048FC32
:101D40006006040E4FF400710A4801F097FC08B1D8
:101D500044F00104052001F03BFC681CC5B2082DCD
:101D6000DDDB00224FF48071034801F082FC204645
:101D700070BD0000000802400000024010B540F6AF
:101D8000014002F02BFA40F6014002F027FA4FF42E
:101D90008073002201210C4801F078FC4FF480731D
:101DA00002220021084801F098FC4FF40073002241
:101DB0000121054801F06AFC4FF400730222002162
:101DC000014801F08AFC10BD0004024070B52DED01
:101DD000068B82B00446002500200090019000266A
:101DE00042F2301000F0F0F8FFF7FCFB882000F022
:101DF000DBF9FFF7F5FA012803D102B0BDEC068B41
:101E000070BD201200F0D0F9FFF7EAFA012801D1E5
:101E10000220F2E7E0B200F0C7F9FFF7E1FA01288B
:101E200001D10320E9E700BF681C85B2142D01DD54
:101E30000420E2E7022001F0BFFBFFF7D3FB89207B
:101E400000F0B2F9FFF7CCFA0128EDD0FFF724FF3C
:101E50008DF800000020FFF74BFBFFF71DFF8DF80A
:101E600001000020FFF744FBFFF716FF8DF802008A
:101E70000020FFF73DFBFFF70FFF8DF80300002068
:101E8000FFF736FBFFF708FF8DF804000020FFF78F
:101E90002FFBFFF701FF8DF805000120FFF728FB5E
:101EA000FFF7FEFB0221684601F050FB9DF802108F
:101EB000884259D102210DF1030001F047FB9DF842
:101EC0000510884250D19DF801009DF8001040EAAD
:101ED00001263046FEF7FEFB41EC1A0B9FED250B69
:101EE00053EC102BFEF787FB41EC190B9FED230BF6
:101EF00053EC102BFEF70DFB41EC180B9FED210B63
:101F000053EC102BFEF7FFFA204A03C200269DF87F
:101F100004009DF8031040EA01263046FEF7DAFB84
:101F200041EC190B9FED130B53EC102BFEF763FBE9
:101F300041EC180B9FED160B53EC102BFEF7E9FA52
:101F4000154A03C2114890ED000B53EC102B13A05F
:101F500000F068FE104890ED000B53EC102B13A01E
:101F600000F060FE002048E714A000F05BFE0520B2
:101F700043E7000000000000E0FFEF400000000029
:101F800000E065400000000000804640680000203E
:101F900000000000000059407000002074656D7062
:101FA000203D20252E32660D0A00000068756D69FF
:101FB000203D20252E32660D0A000000D0A3D1E975
:101FC000CAA7B0DC0D0A000010B50446FFF70AFBF3
:101FD000882000F0E9F8FFF703FA012800D110BDCE
:101FE000201200F0E1F8FFF7FBF9012801D10220EF
:101FF000F5E7E0B200F0D8F8FFF7F2F9012801D1D7
:102000000320ECE70020EAE700B587B040F6014086
:1020100002F0E4F840F6014002F0E0F840F601403A
:1020200002F0DCF840F6014002F0D8F840F6034038
:1020300002F0D4F840F6034002F0D0F841F20E006E
:1020400002F0CCF84FF400520521464801F0DEFAC8
:102050004FF4005300220221424801F017FB4FF4D5
:102060000053022200213F4801F037FB4FF400519A
:102070003C4801F0FAFA4FF400420521394801F0DA
:10208000C5FA4FF4004300220221364801F0FEFA5F
:102090004FF4004302220021324801F01EFB4FF4AE
:1020A0000041304801F0E1FA1023012211462D4889
:1020B00001F0ECFA1023022200212A4801F00DFB66
:1020C00001221021274801F0D4FA01231A461946AB
:1020D000254801F0DBFA012302220021224801F009
:1020E000FCFA01221146204801F0C3FA082301221C
:1020F00011461D4801F0CAFA0823022200211A489D
:1021000001F0EBFA01220821174801F0B2FA4FF46E
:10211000805300220121134801F0B8FA4FF4805394
:10212000022200210F4801F0D8FA012211030D48C4
:1021300001F09FFA002001904FF48270009000207F
:102140000290032005904FF4007003900020069049
:1021500004906946054802F00EF9044802F0F8F8C8
:1021600007B000BD00040240000C024000380040EF
:1021700010B5044600BF0221094802F0F4F8002817
:10218000F9D02146064802F0ECF800BF01210448CE
:1021900002F0E9F80028F9D0014802F0DEF810BD9D
:1021A000003800407047000070B5044600254FF429
:1021B000007301221146144801F068FA00224FF41E
:1021C0008071114801F055FA00BF1AE0E2094FF49E
:1021D00000710D4801F04DFA00BF012211020A48BA
:1021E00001F047FA052001F0F3F900224FF4807165
:1021F000054801F03EFA052001F0EAF96006040EF8
:102200006D1C082DE2DB70BD0004024070B5044671
:1022100000254FF4007301221146144801F036FAEC
:1022200000224FF48071124801F023FA00BF1AE037
:10223000E2094FF400710D4801F01BFA00BF0122C2
:1022400011020B4801F015FA052001F0C1F9002236
:102250004FF48071064801F00CFA052001F0B8F93E
:102260006006040E6D1C082DE2DB70BD0008024004
:10227000000002401D4890ED000A1D48D0ED000A04
:10228000B4EE600AF1EE10FA2DD11A4890ED000A72
:102290001948D0ED000AB4EE600AF1EE10FA22D12E
:1022A000164890ED000A1648D0ED000AB4EE600A18
:1022B000F1EE10FA17D1134890ED000A1248D0ED54
:1022C000000AB4EE600AF1EE10FA0CD10F4890ED5E
:1022D000000A0F48D0ED000AB4EE600AF1EE10FAE1
:1022E00001D1012070470020FCE700000C00002015
:1022F00020000020100000202400002014000020F6
:1023000028000020180000202C0000201C000020C5
:102310003000002000B587B041F2020001F05EFFFE
:1023200041F2010001F05AFF40F6014001F056FF72
:1023300040F6024001F052FF4FF0807001F084FF40
:10234000C023002202215F4801F0A0F9C02302222D
:1023500000215C4801F0C1F9C0220221594801F076
:1023600055F94FF4707300220221574801F08EF99D
:102370004FF4707302220021534801F0AEF94FF47C
:1023800070720221504801F041F9504802F020FAE1
:102390004F4802F01DFAC720ADF80C000020ADF840
:1023A0000E00ADF810004B4805900020ADF812006B
:1023B0008DF8180003A9464802F0D2FA03A9434851
:1023C00002F0CEFA0020ADF804000120ADF80000C4
:1023D0000020ADF80600ADF80200ADF80800ADF839
:1023E0000A006A460021394802F08EF86A46012147
:1023F000364802F089F86A460021354802F084F830
:102400006A460121324802F07FF86A4602213048CC
:1024100002F07AF86A4603212D4802F075F870221E
:1024200000212B4802F066F970220121284802F0B1
:1024300061F970220221264802F05CF97022032122
:10244000234802F057F970220021204802F052F987
:10245000702201211D4802F04DF9002211461C484E
:1024600002F088F900220121194802F083F90022C4
:102470000221174802F07EF900220321144802F0DD
:1024800079F900221146114802F074F90022012165
:102490000E4802F06FF90D4802F030F80C4802F0D7
:1024A0002DF80121094802F0B6FA0121084802F08E
:1024B000B2FA064802F04EFA054802F04BFA07B0AD
:1024C00000BD000000040240000802400008004077
:1024D000000400403F0D030070B505460024C5EB25
:1024E000C50000F5FA74B4F5FA7F02D24FF4FA741D
:1024F00004E040F6C410844200D90446224600217C
:10250000014802F024F970BD0004004070B5054692
:102510000024C5EBC50000F5FA74B4F5FA7F02D2C9
:102520004FF4FA7404E040F6C410844200D9044623
:1025300022460121014802F00AF970BD0004004062
:1025400070B505460024C5EBC50000F5FA74B4F576
:10255000FA7F02D24FF4FA7404E040F6C4108442C9
:1025600000D9044622460221014802F0F0F870BD6D
:102570000004004070B505460024C5EBC50000F519
:10258000FA74B4F5FA7F02D24FF4FA7404E040F61C
:10259000C410844200D9044622460021014802F0BA
:1025A000D6F870BD0008004070B505460024C5EBA4
:1025B000C50000F5FA74B4F5FA7F02D24FF4FA744C
:1025C00004E040F6C410844200D9044622460121AA
:1025D000014802F0BCF870BD0008004010B500F0E2
:1025E000DFFF10BD08B52D48006840F470002B498E
:1025F00008602B48006840F001002949086028481D
:102600000830006840F0800025490831086000204B
:10261000009002E00098401C00904CF2503100986D
:102620008842F7D31E480830006840F090001C49EB
:10263000083108600020009002E00098401C0090E3
:102640004CF2503100988842F7D3154808300068A2
:1026500020F0030012490831086011480068114950
:1026600008400F4908600846006820F48020086090
:1026700000200B490831086000BF09480830006895
:1026800000200028F9D108480549091D08600020EC
:1026900003490C31086001F005FF08BD88ED00E03A
:1026A00000380240FFFFF6FE1030002410B5012173
:1026B000084802F0A4F901280AD10121054802F0D6
:1026C0009BF98021044800F0D2FF04A000F0AAFA90
:1026D00010BD000000100040000C02404253505F4B
:1026E00054494D45525F49525148414E444C455220
:1026F000210D0A0010B51249124802F098FB01287A
:102700000BD1104802F092FAC1B20F48028800883B
:10271000401C0D4B18800D4881540D49094802F0AA
:1027200086FB01280AD1074802F080FA00200749F9
:10273000054A1288885401200649087010BD00001F
:1027400005030500004C00407A000020881200209C
:10275000040304007C00002010B51249124802F066
:1027600066FB01280BD1104802F060FAC1B20F4895
:1027700002880088401C0D4B18800D4881540D497B
:10278000094802F054FB01280AD1074802F04EFA2A
:1027900000200749054A128888540120064908701C
:1027A00010BD00000503050000100140600000207E
:1027B00088000020040304006200002010B51449C2
:1027C000144802F034FB88B1124802F02FFA124983
:1027D000124A1278885411490978481CC11700EB35
:1027E00011610912A0EB01210C4A11700C49094832
:1027F00002F01DFB01280AD1064802F017FA00205A
:102800000549064A1278885401200649087010BD0F
:1028100005030500004400408811002079000020D5
:10282000040304007800002000BFFEE710B54FF459
:10283000E13000F07BF910BD00B5BFB0FC21684667
:10284000FDF7D9FC00BF032364224FA14FA000F085
:1028500039F938B901234FF47A724EA14FA000F034
:1028600031F9F0E703234FF4967247A14EA000F030
:1028700029F938B901234FF47A7246A147A000F034
:1028800021F9E0E74CA34FA250A1684600F0DAF925
:10289000032340F6B8323CA1684600F013F938B97A
:1028A00001234FF47A723BA13CA000F00BF9CAE778
:1028B000FC216846FDF79FFC4A4B4BA24DA16846A0
:1028C00000F0C0F903234FF4FA622FA1684600F02C
:1028D000F9F858B902234FF47A722EA12FA000F014
:1028E000F1F8012000F0E3F9FFF7A2F9FC216846B6
:1028F000FDF781FC4BA24DA1684600F0A3F903232C
:102900004FF47A7220A1684600F0DCF858B902232F
:102910004FF47A721FA121A000F0D4F8012000F03A
:10292000C6F9FFF785F9FC216846FDF764FC46A26D
:102930004AA1684600F086F903234FF4FA6212A117
:10294000684600F0BFF858B902234FF47A7211A11B
:1029500012A000F0B7F8012000F0A9F9FFF768F91C
:10296000FC216846FDF747FC43A250A1684600F0F1
:1029700069F903234FF47A7203A1684600F0A2F8C4
:10298000FEF748FA3FB000BD4F4B000041540D0A1E
:1029900000000000726561647900000041542B5210
:1029A00053540D0A0000000041542B43574D4F442F
:1029B000453D310D0A0000003132333435363738A9
:1029C00036300000746865727569000041542B430D
:1029D000574A41503D222573222C222573220D0A8D
:1029E00000000000446C00086B5A6234376542579F
:1029F0003338000041542B4D5154545553455243E4
:102A000046473D302C312C22746573743031222CB2
:102A1000222573222C222573222C302C302C2222AA
:102A20000D0A0000746573743031000041542B4D61
:102A3000515454434C49454E5449443D302C222571
:102A400073220D0A000000006D717474732E6865A6
:102A5000636C6F7564732E636F6D000041542B4D72
:102A6000515454434F4E4E3D302C222573222C316D
:102A70003838332C310D0A00247379732F6B5A6266
:102A8000343765425733382F7465737430312F747F
:102A900068696E672F70726F70657274792F706FCE
:102AA00073742F7265706C790000000041542B4DD7
:102AB0005154545355423D302C222573222C310D54
:102AC0000A0000002DE9F04106460F4614461D4657
:102AD000304600F09BF818E0204600F053FD104807
:102AE0000078012811D100200D4908700D490870A7
:102AF00039460D48FDF78AFB10B10120BDE8F08191
:102B00004FF480710848FDF776FB281EA5F10101FE
:102B1000CDB2E1D1024908700249087000BFEDE76B
:102B200078000020790000208811002010B50446AC
:102B300041F2110001F052FB40F6034001F04EFB60
:102B400040F6034001F04AFB20220721254800F00F
:102B50005DFD40220721234800F058FD202301227B
:102B60000221204800F092FD4023012202211D484D
:102B700000F08CFD2023022200211A4800F0ADFD58
:102B8000402302220021174800F0A7FD21461648E5
:102B900001F0D8FF0021144802F065F90021124825
:102BA00002F092F90021104802F07EF90E4802F07E
:102BB000B5F808210C4802F07FF904210A4802F018
:102BC0005AF940F20531084802F024F94FF44171F6
:102BD000054802F01FF902221146262001F0C0F933
:102BE00010BD0000000C02400044004010B5044637
:102BF0002146054802F01FF800BF0721024802F0F5
:102C000092F80028F9D010BD0044004010B50446E9
:102C100003E014F8010BFFF7E9FF14B12078002856
:102C2000F7D110BD0FB4054B10B503A9044A0298A3
:102C300000F004F910BC5DF814FB0000FD3500083D
:102C4000800000200FB4084B10B504A902AA039815
:102C500000F0F4F8044602A9002000F072FC2046BF
:102C600010BC5DF814FB00004335000837B514466E
:102C70000846064B6A46214600F0E0F804466946DD
:102C8000002000F05EFC20463EBD000043350008F9
:102C900002E008C8121F08C1002AFAD17047704725
:102CA000002001E001C1121F002AFBD1704700F093
:102CB000010181F3138870472DE9FF5F82B0002185
:102CC000DDE90430020DDDF840B0034318D044F6CE
:102CD0001050A2F2FF3242431514119801281FD060
:102CE000A5EB0B00401C5FEA000A4FF000064E4FB8
:102CF000DFF83891B046504615D5CAF1000413E00C
:102D0000119801244AA3012801D16FEA0B0102980E
:102D1000119AC0E90031C0E9024206B0BDE8F09F57
:102D2000CBF10000DFE704460021404A491842EB9E
:102D30000450CDE9001012E0E00707D032463B46D0
:102D400040464946FDF7E5FB8046894632463B460C
:102D500010461946FDF7DDFB06460F466410002CB1
:102D6000EAD1DDE90401DDE90023BAF1000F06DA5A
:102D7000FDF7CFFB42464B46FDF7CBFB05E0FDF7E9
:102D80003AFC42464B46FDF736FC04460E4600220E
:102D9000284BFDF761FE03D84FF0FF30014607E0F6
:102DA0000022254B20463146FDF70CFBFDF73CFE8B
:102DB000102409E0002C0ADB0A220023FDF7FBFCAB
:102DC000039B30321A55641E50EA0102F2D1641C92
:102DD000039AC4F111031444119A012A03D0012269
:102DE00008430DD10AE0084304D000204FF0110B36
:102DF000119072E7A3EB0B056D1E0DE05B4504DD42
:102E00004FF0000205F1010504E003DA4FF0000283
:102E1000A5F10105002AECD002981199C0E9023110
:102E2000C0E9004579E70000000014400000F03FD1
:102E3000300000000000F0430000E03F2DE9FF4FAC
:102E400095B09A46884606460025EEE1252877D1BA
:102E500000242746F94A0121039400E0044316F8B0
:102E6000013F203B01FA03F01042F7D130782A28C5
:102E700011D06FF02F033078A0F13002092A16D854
:102E8000039A44F0020402EB820203EB4202104474
:102E9000761C0390EFE758F8042B0392002A03DA1C
:102EA000504244F40054039044F00204761C3078FD
:102EB0002E2816D116F8010F44F004042A280DD04C
:102EC0006FF02F023078A0F13003092B09D807EBFF
:102ED000870302EB4303C718761CF3E758F8047B1B
:102EE000761C30786C280FD006DC4C2817D0682868
:102EF0000DD06A2814D104E0742810D07A280FD19C
:102F00000DE044F400140AE044F4801401E044F4B9
:102F100040147278824202D104F58014761C761C2B
:102F2000307866280BD013DC582877D009DC0028CD
:102F300075D04528F6D04628F4D047281AD193E119
:102F400018E0632835D0642879D0652812D18BE148
:102F5000702873D008DC6728F1D069286FD06E28FC
:102F60000DD06F2806D1ACE073282CD0752874D012
:102F7000782853D05246179990476D1C54E1C4F3FA
:102F80000250022809D003280DD0D8F800100428D8
:102F90000DD00D6008F1040846E1D8F80010EA17DA
:102FA000C1E90052F6E7D8F800100D80F2E70D7085
:102FB000F0E718F8041B8DF8001000208DF80100D0
:102FC000EB46012003E058F804BB4FF0FF306107E7
:102FD0004FF0000102D40DE009F101018946B94228
:102FE0000FDA8145F8DB1BF809100029F4D108E05D
:102FF00009F1010189468142FADB1BF80910002919
:10300000F6D103985346A0EB090721463846179A94
:1030100000F080FA284400EB090507E044E008E1ED
:103020000DE01BF8010B524617999047B9F10109C1
:10303000F7D2534621463846179AF2E039E00A2182
:10304000C4F302524FF0000B0091022A06D058F848
:10305000040BC117032A09D00AE023E008F1070096
:1030600020F00702F2E80201904605E000B2C11725
:10307000042A01D140B2C117002906DA0A4600210C
:10308000404261EB02012D2202E0220504D52B22F1
:103090008DF80420012203E0E20701D02022F7E7A7
:1030A000914657E00A2100E010214FF0000B0091FB
:1030B0000BE010214FF0000B44F0040408270091AE
:1030C00003E008204FF0000B0090C4F30252022AE4
:1030D00005D058F8040B0021032A08D008E008F1B5
:1030E000070020F00702F2E80201904603E080B2F8
:1030F000042A00D1C0B24FF0000922072AD5327845
:10310000702A07D0DDF800C08CF0100C5CEA0B0CC4
:1031100005D00EE040228DF80420012208E050EA9C
:10312000010306D030238DF804308DF805200222EB
:103130009146009B83F0080353EA0B030AD150EA3F
:10314000010201D1620705D530228DF804204FF02D
:1031500001097F1E3278582A04D039A20C920CAA99
:1031600002920BE03BA2F9E75B46009AFDF723FBD6
:103170000C9B9B5C029A521E0292137050EA010251
:10318000F2D1029804A9081A00F1200B600702D5B9
:1031900024F4803400E001275F4502DDA7EB0B003B
:1031A00000E0002000EB0B01009003984944401A16
:1031B0000390E00306D453462146179A039800F083
:1031C000A9F90544002706E001A85246C05D1799F9
:1031D00090476D1C7F1C4F45F6DBE0030CD5534632
:1031E0002146179A039800F095F9054404E0302031
:1031F0005246179990476D1C0099481E009000296F
:10320000F5DC08E00298029952460078491C0291C8
:10321000179990476D1CBBF10001ABF1010BF1DC7C
:103220005BE100F065F90544761C307800287FF4F6
:103230000DAE19B02846BDE8F08F00000928010046
:10324000303132333435363738396162636465661C
:1032500000000000303132333435363738394142DE
:103260004344454600000000600700D4062708F1EB
:10327000070020F00700F0E80223804603F0004C2E
:103280005FEA0C0001D097A009E0200501D596A0C7
:1032900005E0E00701D095A001E0AFF24C001390EB
:1032A000307823F0004365280CD006DC452809D08F
:1032B00046281DD047287FD13BE0662818D06728D4
:1032C0007AD136E00021112F01DB112000E0781CBB
:1032D000CDE9000104A90CA8FFF7EEFCDDE90D0122
:1032E0000C9A4FF0000B07F10109109200914EE08B
:1032F0004FF000400097CDE9011004A90CA8FFF79A
:10330000DBFCDDE90D020C9B0F994FF0000B9146A1
:103310001093009211B9791C00EB0109B7EB090079
:1033200003D4C0F1FF3B07F10109A9EB07000190AD
:1033300042E0012F00DA01270021112F01DD1120C9
:1033400000E03846CDE9000104A90CA8FFF7B4FC61
:10335000DDE90D010C9A00914FF0000BB946109277
:1033600021070FD4009A4A4503DA914601E0A9F1FA
:103370000109B9F1010F05DD109AA9F10101515CB4
:103380003029F4D0B84202DA10F1040F03DA012137
:10339000CDE9011010E0002803DC8344A9EB000113
:1033A00002E0411C494500DD8946A0EB0B00401CB2
:1033B00001904FF000400290200705D40198484545
:1033C00002DB4FF0FF30019000208DF84B00029897
:1033D0000DF14B07B0F1004F25D002200C902B20AF
:1033E0000D90029800280CDA404202902D200D909A
:1033F00007E00A210298FDF7C8F93031029007F87A
:10340000011D0C99481E0C900029F2DC029800283E
:10341000EFD1791E0D980870307800F0200040F050
:10342000450007F8020D11A8C01BC01D029013989B
:10343000007800B1012000EB0901019801EBE07177
:10344000029801440398401A401E0390E00306D4FA
:1034500053462146179A039800F05CF805441398E8
:10346000007818B15246179990476D1CE00323D598
:1034700053462146179A039800F04CF805441BE088
:10348000BBF1000F07DB0098584504DD1098179931
:1034900010F80B0001E01799302052469047019830
:1034A0000BF1010B401E05F10105019004D12E2006
:1034B0005246179990476D1CB9F10001A9F1010915
:1034C000DEDC05E017F8010B5246179990476D1C9A
:1034D0000299481E02900029F4DC53462146179AAF
:1034E00003989EE62D0000002B0000002000000045
:1034F0002DE9F041044600251E461746880404D4F1
:1035000005E039462020B0476D1C641EF9D52846D9
:10351000BDE8F0812DE9F041044600251E469046A5
:10352000C80301D5302700E02027880404D505E032
:1035300041463846B0476D1C641EF9D52846BDE8A3
:10354000F0810A68531C0B6010707047F0B502469A
:103550003125FF20002311E012F8016B7040002498
:1035600009E000F080061EB1312686EA400600E040
:103570004600F0B2641C082CF3DB5B1C8B42EBDBD7
:10358000F0BD00004FF47A714143044A116000BF5E
:10359000024909680029FBD17047000000000020A3
:1035A0000448006820B103480068401E01490860D3
:1035B000704700000000002070B50446002504E0BC
:1035C0004FF47A7000F004F86D1CA542F8D370BD7A
:1035D00070B5044607484568012000F06DFD0649B6
:1035E000B0FBF1F0444300BF02484068401BA042DA
:1035F000FAD370BD001000E040420F0070B50446E1
:103600000D46E0B2FFF7F2FA204670BDF0B5034672
:103610001C6A5D6A00200DE00126864016403EB11E
:1036200087000F26BE40B443860001FA06F63443F5
:10363000461CB0B20828EFD3082011E001268640CE
:1036400016405EB1A0F10806B7000F26BE40B54394
:10365000A0F10806B60001FA06F63543461CB0B2E2
:103660001028EBD31C625D62F0BD81617047C162BE
:1036700070470AB1816100E08162704702461069BB
:10368000084008B1012070470020FCE7F0B504466F
:103690000D4616462168E268002019E001278740A0
:1036A0001F409FB14FEA400C032707FA0CF7B943BC
:1036B000470005FA07F739434FEA400C032707FA9A
:1036C0000CF7BA43470006FA07F73A43471CB8B26B
:1036D0001028E3D32160E260F0BDF0B50C4615463A
:1036E000012C03D146681E43466002E046689E43B3
:1036F0004660826800210DE001268E401E403EB1EA
:103700004F000326BE40B2434E0005FA06F6324390
:103710004E1CB1B21029EFD38260F0BD10B54FF44A
:10372000406000F05BFD0423022200210148FFF706
:10373000ADFF10BD000002402DED028B84B04FF4B0
:10374000A06000F06FFC00F0B1FEFDF77BFB4FF4D2
:10375000E13001F0F7FA4FF4E13001F091F9FEF7B2
:10376000D9FDFFF7DBFFFEF709FBFEF77FF9FFF757
:103770005DF8FFF761F800F05FFCFEF71DF801222D
:103780000821FE48FFF775FF4EF67D70FDF7FEFF3E
:103790001E23B42208212820FDF772FBF8A04EF664
:1037A0007D734FF478420C2100903C20FDF7AAFB7A
:1037B00041235A222D210820FDF762FBF4A04EF68A
:1037C0007D730022312100900C20FDF79BFB4123EB
:1037D000D9222D216220FDF753FBEFA04EF67D7319
:1037E00000222F2100906420FDF78CFB60235A22D9
:1037F0004B210820FDF744FBEBA04EF67D73002221
:103800004F2100900C20FDF77DFB6023D9224B2136
:103810006220FDF735FBE6A04EF67D7300224D21B8
:1038200000906420FDF76EFB7D235A226921082059
:10383000FDF726FBE2A04EF67D7300226D2100907D
:103840000C20FDF75FFB7D23D92269216220FDF763
:1038500017FBDDA04EF67D7300226B2100906420E3
:10386000FDF750FB4AE34FF46040FEF7AFFA072143
:103870005A20FEF725F910EE104A2046FCF756FFB5
:1038800041EC180B01204EF67D7100221023B0EEA2
:10389000480AF0EE680ACDE90032CDE902104FF493
:1038A000A073F0223121322000F0E0FC01204EF61E
:1038B0007D7100221023CDE90032CDE90210C64807
:1038C00090ED000B4FF4A073F0224F21322000F056
:1038D000CDFC01204EF67D7100221023CDE900328F
:1038E000CDE90210BD4890ED000B4FF4A073F0221B
:1038F0006D21322000F0BAFC07215A20FEF7E0F8D3
:1039000010EE104A2046FCF711FF41EC180BB248AC
:1039100090ED000B8DED020BB04890ED000B8DED9E
:10392000000B53EC182BAEA1B848FFF77BF9B84851
:103930000078B8490978B84A1278CDE90021029098
:10394000B6480378B6480278A5A1B648FFF76AF9E9
:10395000FDF7F8FEB44908700846007801281CD12C
:103960000020AF490870AD490870AB490870A949FB
:103970000870A7490870AD480188AD48FCF73BFCCA
:103980000020AA490880AB490870A5480178AAA080
:1039900001F04EF80020A4490870A64800780128DC
:1039A0006ED10020A3490870A14804782146A5A043
:1039B00001F03EF8062C59D2DFE804F00304080CAD
:1039C000101453E00120964908704FE002209349FB
:1039D00008704BE003209049087047E004208D49AF
:1039E000087043E005208A490870994890ED000A64
:1039F000984880ED000A984890ED000A974880EDBD
:103A0000000A974890ED000A964880ED000A964813
:103A100090ED000A954880ED000A954890ED000A67
:103A2000944880ED000A9FED940A944880ED000AC6
:103A30009FED930A934880ED000A9FED930A934807
:103A400080ED000A9FED920A924880ED000A8848B6
:103A500090ED000A904880ED000A01208F4908701F
:103A60008F49087000208F49088000BF00BF6F4851
:103A700001886F48FCF7BFFB00206C49088000BF3D
:103A800087480078012877D11420FFF795FD70480A
:103A900090ED000A7948D0ED000AB4EEE00AF1EEAC
:103AA00010FA0AD26A4890ED000A7F48D0ED000A69
:103AB00030EE200A664880ED000A654890ED000A65
:103AC0006E48D0ED000AB4EEE00AF1EE10FA0ADD1D
:103AD0005F4890ED000A7448D0ED000A30EE600AAD
:103AE0005B4880ED000A5C4890ED000A6548D0ED27
:103AF000000AB4EEE00AF1EE10FA0AD2564890ED50
:103B0000000A6948D0ED000A30EE200A524880EDE4
:103B1000000A514890ED000A5A48D0ED000AB4EE70
:103B2000E00AF1EE10FA0ADD4B4890ED000A5E481B
:103B3000D0ED000A30EE600A474880ED000A4848A0
:103B400090ED000A5148D0ED000AB4EEE00AF1EE23
:103B500010FA0AD2424890ED000A5348D0ED000A0C
:103B600030EE200A3E4880ED000A3D4890ED000A04
:103B70004648D0ED000A99E082E10000000C0240C6
:103B8000D6C7C4DCBCE0B2E2CFB5CDB300000000C4
:103B9000CCE5CEC2A3BA0000CCE5CEC2E3D0D6B508
:103BA000A3BA33362D333800CAAAB6C8A3BA000068
:103BB000CAAAB6C8E3D0D6B5A3BA34302D36300081
:103BC000CEC2B6C8A3BA0000CEC2B6C8E3D0D6B53E
:103BD000A3BA32362D333000700000206800002078
:103BE000247379732F6B5A62343765425733382FF9
:103BF0007465737430312F7468696E672F70726FDB
:103C000070657274792F706F737400009C6B00087C
:103C10000900002008000020070000200600002006
:103C200005000020246A0008040000207A0000201B
:103C3000881200207C0000206162633A2025640D18
:103C40000A000000726563763A2025640D0A0000C0
:103C50000C00002048000020100000204C00002034
:103C60001400002050000020180000205400002004
:103C70001C000020580000200000484320000020C5
:103C800000000D432400002000808B43280000200A
:103C9000000016432C0000203000002045000020CA
:103CA000380000204600002034000020B4EEE00A76
:103CB000F1EE10FA0ADD924890ED000A9148D0ED3D
:103CC000000A30EE600A8E4880ED000A8E4890EDC2
:103CD000000A8E48D0ED000AB4EEE00AF1EE10FAC8
:103CE0000AD2894890ED000A8648D0ED000A30EEED
:103CF000200A854880ED000A834890ED000A834839
:103D0000D0ED000AB4EEE00AF1EE10FA0ADD7E48CA
:103D100090ED000A7B48D0ED000A30EE600A7A4848
:103D200080ED000A7A4890ED000A7A48D0ED000A4A
:103D3000B4EEE00AF1EE10FA0AD2754890ED000AEE
:103D40007048D0ED000A30EE200A714880ED000A7C
:103D50006F4890ED000A6F48D0ED000AB4EEE00A1B
:103D6000F1EE10FA0ADD6A4890ED000A6548D0EDE0
:103D7000000A30EE600A664880ED000AFEF77AFA23
:103D800000287DD06448007807280DD2DFE800F0D5
:103D900088040D2B545E82009FED600A5D4880ED23
:103DA000000A02205C4908707AE09FED5D0A5D48D8
:103DB00080ED000A9FED5C0A5C4880ED000A9FEDF3
:103DC0005C0A5C4880ED000A9FED5B0A4F4880ED7D
:103DD000000A4F4890ED000A4E4880ED000A03208B
:103DE0004D4908705CE055480088401C53490880E4
:103DF0000846008864281EDB002008801FED620A48
:103E0000484880ED000A1FED620A484880ED000A2C
:103E10001FED630A474880ED000A1FED630A3B4827
:103E200080ED000A3A4890ED000A3A4880ED000A19
:103E300004203949087033E0414890ED000A3548C4
:103E400080ED000A05203449087029E03D4890EDD6
:103E5000000A344880ED000A3B4890ED000A3348E0
:103E600080ED000A394890ED000A324880ED000AE2
:103E7000374890ED000A254880ED000A304800E000
:103E80000FE090ED000A234880ED000A0620224949
:103E9000087005E000202F4908701F49087000BF16
:103EA00000BF2D4890ED000ABCEEC00A10EE100ACB
:103EB000FEF712FB294890ED000ABCEEC00A10EE96
:103EC000100AFEF723FB0E4890ED000ABCEEC00A74
:103ED00010EE100AFEF734FB0B4890ED000ABCEE22
:103EE000C00A10EE100AFEF745FB094890ED000AE3
:103EF000BCEEC00A10EE100AFEF756FBB3E4000059
:103F00001400002034000020180000202C000020A5
:103F10001C00002030000020450000200000254348
:103F200000007A432000002000001B4324000020F2
:103F300000005243280000200000574346000020A4
:103F400058000020480000204C00002050000020B5
:103F500054000020380000200C0000201000002039
:103F60002DE9F04103460D46164600240027A046E1
:103F70002A48006800F4E060B0F5E06F03D100BFAC
:103F80004FF0040830E02548006800F4E060B0F528
:103F9000C06F03D101274FF0030825E01F480068D8
:103FA00000F4E060B0F5A06F02D10227B8461BE034
:103FB0001A48006800F4E060B0F5806F03D1032771
:103FC0004FF0010810E01548006800F4E060B0F51B
:103FD000407F03D104274FF0000805E04FF4A060B4
:103FE00000F020F80227B846C7F1040005FA00F4F3
:103FF000C8F104010F20C8403040044324010848A0
:10400000C45403F01F01012088405911890001F1B7
:10401000E021C1F80001BDE8F08100000CED00E0F6
:1040200000E400E002490143024A116070470000C9
:104030000000FA050CED00E030B52DED028B85B0E7
:10404000012507215A20FDF73BFD10EE104A2046BE
:10405000FCF76CFB41EC180B094890ED000B8DED63
:10406000020B084890ED000B8DED000B53EC182B64
:1040700005A11048FEF7D6FD05B0BDEC028B30BDA2
:104080007000002068000020247379732F6B5A623F
:10409000343765425733382F7465737430312F7459
:1040A00068696E672F70726F70657274792F706FA8
:1040B00073740000F86A00082DE9F04F8CB00646D2
:1040C00000200A903EA090E8004CC068CDE905BEF3
:1040D000CDF810A007900FF2EC0ADAE9000ACDE95A
:1040E000020A0FF2E00ADAE9000ACDE9000A3848CC
:1040F0000068C0F381000B900B9820B1012804D018
:10410000022828D103E0334927E0334925E030482D
:10411000001F006800F03F072D48001F0068C0F333
:10412000881C2B48001F0068C0F30140401C4FEA68
:1041300040092748001F006800F48008B8F5800F88
:1041400001D1254B00E0234BB3FBF7F000FB0CF053
:10415000B0FBF9F101E01F4900BF00BF1C48006837
:10416000C0F3031404A8055D21FA05F2184800689D
:10417000C0F3822402A8055D22FA05F009901448D4
:104180000068C0F342341DF8045022FA05F008908C
:1041900036B1012E06D0022E06D0032E0AD106E03B
:1041A0000A9108E00A9206E009980A9003E008984C
:1041B0000A9000E000BF00BF0A980CB0BDE8F08F85
:1041C00000000000000000000102030406070809C7
:1041D000083802400024F40040787D01074A02EBD1
:1041E0009011D1F8001800F01F0301229A401143EA
:1041F000024B03EB9012C2F80018704700300240E7
:10420000074A02EB9011D1F8001800F01F030122B9
:104210009A409143024B03EB9012C2F8001870478A
:1042200000300240074A02EB9011D1F8001800F06C
:104230001F0301229A401143024B03EB9012C2F874
:1042400000187047003002406FF08071884205D13D
:10425000054909680140044A116004E002490968FF
:104260000143014A116070478C3802402DE9F04F3C
:104270002DED028B91B005460E4617469846B0EEDE
:10428000408AF0EE608ADDE91DABDDF870901F9C7E
:10429000002C07DD8DED008B22460FA104A8FEF750
:1042A000D1FC09E051EC180BFCF721FA02460CA1F5
:1042B000039004A8FEF7C6FC04A843463A463146DC
:1042C0008DE8000E0390284600F00CF811B0BDEC0C
:1042D000028BBDE8F08F0000252E2A66000000004A
:1042E000256400002DE9FC5F06460F4692469B467A
:1042F000DDE90D890F9D0C9C102C07D14B464246E1
:10430000394630460095FCF7FDFD1CE0182C07D11E
:104310004B464246394630460095FCF7BDFE12E05A
:10432000202C10D10020019001AA08A12846FBF7FB
:1043300087FFBDF804004B464246394600903046A0
:10434000FCF7A2FF00BFBDE8FC9F000025687500D8
:10435000016841F04001016070470146C86880B2C1
:104360007047C160704702469068084008B101205C
:1043700070470020FCE702460020106800F441501E
:104380000B6818434B6818438B681843CB68184375
:104390000B6918434B6918438B6918431060D36944
:1043A00023F40063D3617047002000213A4A126869
:1043B00042F48032384B1A6000BF401C364A126803
:1043C00002F4003119B94FF6FF729042F5D1324A2A
:1043D000126802F400320AB900BFFEE72E4A4032EA
:1043E000126842F080522C4B40331A602B4A1268FC
:1043F00042F44042294B1A60274A08321268264B81
:1044000008331A601A46126842F400421A601A46CB
:10441000126842F4A0521A60214A1B1F1A601A1F28
:10442000126842F080721B1F1A6000BF1A4A12689D
:1044300002F00072002AF9D0184A126842F4803261
:10444000164B1A6000BF154A526802F48032002AE7
:10445000F9D0124A126842F40032104B1A6000BFC1
:104460000E4A526802F40032002AF9D00A4A083291
:10447000126822F00302084B08331A601A461268C9
:1044800042F002021A6000BF034A0832126802F0CA
:104490000802002AF8D0704700380240007000403F
:1044A0001964400910B5FFF77FFF10BD10B5114822
:1044B00000681149B0FBF1F4601EB0F1807F01D3B8
:1044C00001200FE0601E4FF0E02148610F214FF006
:1044D000FF30FDF799FB00204FF0E02188610720B5
:1044E0000861002008B100BFFEE70021481EFDF76B
:1044F0008BFB10BD5C00002040420F00016841F0C2
:10450000800101607047000010B531B101293FD032
:1045100002297DD003297CD1BFE0036A23F0010387
:104520000362836923F003038361036A14882343CE
:104530000362036A23F002030362036A948823433D
:1045400003626A4B984202D0694B98421FD1036ABA
:1045500023F004030362036A548823430362036A5B
:1045600023F008030362036AD48823430362436889
:1045700023F4807343604368148923434360436892
:1045800023F4007343604368548923434360ABE0E2
:10459000036A23F010030362836923F44073836189
:1045A000036A148843EA04130362036A23F02003B6
:1045B0000362036A948843EA041303624B4B9842F4
:1045C00002D04B4B984226D1036A23F0400303628A
:1045D000036A548843EA04130362036A23F08003E6
:1045E0000362036AD48843EA04130362436823F432
:1045F000806343604368148943EA840343604368EB
:1046000023F4006343604368548943EA840301E070
:1046100002E068E0436067E0036A23F480730362AA
:10462000C36923F00303C361036A148843EA0423C4
:104630000362036A23F400730362036A948843EA03
:1046400004230362294B984202D0294B984223D17C
:10465000036A23F480630362036A548843EA0423F1
:104660000362036A23F400630362036AD48843EAA3
:1046700004230362436823F480534360436814892E
:1046800043EA04134360436823F4005343604368E0
:10469000548943EA0413436026E0036A23F48053F9
:1046A0000362C36923F44073C361036A148843EA55
:1046B00004330362036A23F400530362036A948899
:1046C00043EA04330362094B984202D0084B9842F4
:1046D00008D1436823F4804343604368148943EA64
:1046E0008413436000E000BF00BF10BD0000014024
:1046F0000004014031B101290CD0022913D0032953
:1047000022D118E0836923F0700383618369134326
:1047100083611AE0836923F4E0438361836943EA98
:104720000223836111E0C36923F07003C361C3698D
:104730001343C36109E0C36923F4E043C361C36960
:1047400043EA0223C36100E000BF00BF704731B1FC
:10475000012906D0022906D0032908D105E04263C9
:1047600006E0826304E0C26302E0026400E000BF8E
:1047700000BF704731B101290CD0022913D00329A1
:1047800022D118E0836923F008038361836913430E
:1047900083611AE0836923F400638361836943EAD8
:1047A0000223836111E0C36923F00803C361C36975
:1047B0001343C36109E0C36923F40063C361C369A0
:1047C00043EA0223C36100E000BF00BF704700005E
:1047D00010B504465C49601A8C426FD019DC5B4905
:1047E000A4EB01008C424ED009DCB4F1804F2ED0F6
:1047F00057482044A0B3B0F5806F72D13AE0B0F5CD
:10480000806F49D0B0F5006F4FD0B0F5406FF4D154
:104810007BE0B0F5923F5BD009DCB0F5806F73D0E0
:10482000B0F5644F0AD0B0F5684F5AD147E0B0F503
:10483000943F57D0B0F5963F53D15CE04FF41060F1
:10484000FFF7F0FC4FF41060FFF7DAFC79E04FF46B
:104850000060FFF7E7FC4FF40060FFF7D1FC70E069
:10486000FFE740F60100FFF7DDFC40F60100FFF72F
:10487000C7FC66E040F60200FFF7D4FC40F60200F9
:10488000FFF7BEFC5DE040F60300FFF7CBFC40F60F
:104890000300FFF7B5FC54E040F60400FFF7C2FC4C
:1048A00040F60400FFF7ACFC4BE040F60500FFF7D4
:1048B000B9FC40F60500FFF7A3FC42E02EE040F60D
:1048C0000110FFF7AFFC40F60110FFF799FC38E04C
:1048D0004FF41160FFF7A6FC4FF41160FFF790FC56
:1048E0002FE02DE040F61110FFF79CFC40F6111070
:1048F000FFF786FC25E040F61210FFF793FC40F628
:104900001210FFF77DFC1CE011E040F60600FFF7F7
:1049100089FC40F60600FFF773FC12E040F6070042
:10492000FFF780FC40F60700FFF76AFC09E040F65D
:104930000800FFF777FC40F60800FFF761FC00E095
:1049400000BF00BF10BD0000001C0040000C004074
:1049500000FCFFBF016841F00101016070470000E9
:104960000A8882621D4A90420ED0B0F1804F0BD06F
:104970001B4A904208D01B4A904205D01A4A9042E6
:1049800002D01A4A90420BD1026822F070020260F3
:1049900002684B881A43026002688B881A430260DF
:1049A0008A68C262124A90420AD0124A904207D0E4
:1049B000026822F4407202600268CB881A430260E7
:1049C000064A904202D0094A904201D10A7B026312
:1049D000426942F00102426170470000000001405C
:1049E0000004004000080040000C004000040140AA
:1049F0000010004000140040CA43026170470246A4
:104A0000D06800EA01031069084010B10BB1012021
:104A100070470020FCE7012904D1426C42F40042B7
:104A2000426403E0426C22F400424264704700009A
:104A30000FB438B50024002505A800900E48009A50
:104A40000499FEF713F9002000900B48FBF7F0FBE8
:104A5000054604E00849085D00F016FA641CAC4203
:104A6000F8D300BF0621054800F05DF90028F9D011
:104A700038BC5DF814FB00008810002000100140D5
:104A800010B504464FF44060FFF7A8FB4FF44060B8
:104A9000FFF7A4FB41F21300FFF7A0FB012208215E
:104AA0002648FEF7B3FD022208212448FEF7AEFD9A
:104AB00001231A4602212148FEF7E8FD02230122C4
:104AC00019461E48FEF7E2FD0123022200211B4881
:104AD000FEF703FE02231A4600211848FEF7FDFDEB
:104AE000174800F0ADF82146154800F02BF80021DA
:104AF000134800F0B8F90021114800F0E5F9002151
:104B00000F4800F0D1F90E4800F008F908210C48D0
:104B100000F0D2F904210A4800F0ADF90222114652
:104B20003420FFF71DFA40F20531054800F072F914
:104B30004FF44171024800F06DF910BD00000240D1
:104B4000004C00402DE9F04704460D460027B846CA
:104B5000B94600263349601A8C4235D00CDC324805
:104B60002044E8B1B0F5806F1FD0B0F5006F21D0C0
:104B7000B0F5406F32D122E0B0F5806F29D0B0F5AA
:104B8000184F03D0B0F51C4F28D104E00320FFF7E5
:104B900093FA074623E00320FFF78EFA07461EE04C
:104BA0000220FFF789FA074619E00220FFF784FA8E
:104BB000074614E00220FFF77FFA07460FE00220C5
:104BC000FFF77AFA07460AE00220FFF775FA074670
:104BD00005E00220FFF770FA074600E000BF00BFC3
:104BE000E06800F4004070B1780000EB5500B0FBC5
:104BF000F5F64FF6F07006EA0008C6F3420948EAF7
:104C00000900A0600CE007EB5500B0FBF5F64FF68D
:104C1000F07006EA000806F00F0948EA0900A060F3
:104C2000BDE8F0870078004000BCFFBF014648683F
:104C3000C0F308007047C1F30802426070470000EB
:104C400010B504463349601A8C424DD00CDC324812
:104C50002044E0B1B0F5806F22D0B0F5006F31D0C4
:104C6000B0F5406F52D136E0B0F5806F45D0B0F569
:104C7000184F03D0B0F51C4F48D11AE040F604108D
:104C8000FFF7D0FA40F60410FFF7BAFA3FE040F61B
:104C90001100FFF7C7FA40F61100FFF7B1FA36E04E
:104CA00040F61200FFF7BEFA40F61200FFF7A8FA2E
:104CB0002DE040F60510FFF7B5FA40F60510FFF7B6
:104CC0009FFA24E040F61300FFF7ACFA40F6130019
:104CD000FFF796FA1BE040F61400FFF7A3FA40F640
:104CE0001400FFF78DFA12E040F61E00FFF79AFA63
:104CF00040F61E00FFF784FA09E040F61F00FFF7B8
:104D000091FA40F61F00FFF77BFA00E000BF00BFFA
:104D100010BD00000078004000BCFFBFC16841F436
:104D20000051C160704710B5024602EB9110006857
:104D300001F01F040123A340184008B1012010BD59
:104D40000020FCE710B504464FF44060FFF746FA38
:104D50004FF44060FFF742FA41F20410FFF73EFAC9
:104D60004FF4007207212948FEF750FC4FF480628F
:104D700007212648FEF74AFC4FF400730122022166
:104D80002248FEF783FC4FF48063012202211F4872
:104D9000FEF77CFC4FF40073022200211B48FEF753
:104DA0009CFC4FF48063022200211848FEF795FC1A
:104DB0001748FFF745FF21461548FFF7C3FE0021BE
:104DC000134800F050F80021114800F07DF8002150
:104DD0000F4800F069F80E48FFF7A0FF08210C48C3
:104DE00000F06AF804210A4800F045F80222114652
:104DF0002520FFF7B5F840F20531054800F00AF824
:104E00004FF44171024800F005F810BD0000024067
:104E10000010014010B500EB9112126801F01F0460
:104E20000123A3401A4300EB91131A6010BD70B523
:104E3000024600230024C1F38910105801F01F0618
:104E40000125B54000EA050302EB91500068C1F36B
:104E500004460125B54000EA050414B10BB1012058
:104E600070BD0020FCE7C26822F4C062C260C26864
:104E70000A43C26070470A460021C16821F004015C
:104E80001143C1607047000010B504462146054833
:104E9000FFF7D1FE00BF07210248FFF744FF0028BB
:104EA000F9D010BD00100140026922F440520261A5
:104EB00002690A43026170470A460021C16821F075
:104EC00008011143C1607047C26822F48052C26079
:104ED000C2680A43C2607047000000000000000082
:104EE0000000000000000000001010101010101052
:104EF000101000001010000000006C6C2424000052
:104F000000000100000000000024242424FE484882
:104F10004848FC909090900000103C54929050387B
:104F200014121292547810000000225C94A84810C9
:104F300010242A5254880000000030484850206E47
:104F400054948C888A7400000000303010100000E7
:104F500000000000000000000004081010202020C5
:104F60002020201010080400008040202010101085
:104F70001010102020408000000000001054381055
:104F8000385410000000000000000010101010FE47
:104F900010101010000000000000000000000000D1
:104FA000000000001010200000000000000000FEC3
:104FB00000000000000000000000000000000000F1
:104FC0000000000010100000000004040808101089
:104FD000202040408080000000003844828282828D
:104FE000828282824438000000001070101010107D
:104FF00010101010107C0000000038448282040859
:105000001020408284FC00000000384482020438F2
:1050100004020282443800000000040C141424240A
:105020004444FE04040E00000000FC808080B8C4EC
:10503000820202828478000000003C428280B8C470
:10504000828282824438000000007E42820404088A
:105050000808101010100000000038448282443804
:105060004482828244380000000038448282828276
:10507000463A028244380000000000001010000090
:1050800000001010000000000000000010100000E0
:1050900000000010102000000000000006186080D2
:1050A0006018060000000000000000000000FE0084
:1050B00000FE00000000000000000000C0300C02F4
:1050C0000C30C00000000000003844828202040856
:1050D000101010001010000000003844829AAAAA94
:1050E000AAAAAA9680423C00000010101028282886
:1050F00044447C4444EE00000000FC424242427CB6
:105100004242424242FC000000003C4482808080D7
:1051100080808282443800000000F84442424242CB
:105120004242424244F800000000FC444240447CB9
:105130004440404244FC00000000FC444240447CA7
:105140004440404040F000000000344C82808080A9
:105150008E8484844C3400000000EE444444447C3B
:105160004444444444EE000000007C101010101031
:1051700010101010107C000000003E0808080808FD
:1051800008080888887000000000EE444848506015
:105190005048484444EE00000000E0404040404099
:1051A0004040404244FC00000000C6446C6C6C541B
:1051B0005454444444EE00000000CE4464646454FB
:1051C000544C4C4C44E400000000384482828282FB
:1051D00082828282443800000000F8444242424405
:1051E0007840404040E000000000384482828282E3
:1051F000828282BA443C02000000F04844444448A1
:105200007048444444E6000000003C448280403042
:105210000C0202824478000000007C5492101010AE
:1052200010101010103800000000EE4444444444B4
:1052300044444444443800000000EE4444444428BC
:1052400028282810101000000000EE445454545434
:1052500054542828282800000000EE444428281030
:105260001028284444EE00000000EE44442828287A
:10527000101010101038000000007E448408081040
:105280002020408284FC0000001C10101010101020
:105290001010101010101C000000EE445454FE5466
:1052A00054542828282800000070101010101010E6
:1052B0001010101010107000003048840000000022
:1052C00000000000000000000000000000000000DE
:1052D000000000000000FE00004020000000000070
:1052E00000000000000000000000000000007884C2
:1052F000047C84848C7600000000C04040405864E8
:10530000424242426458000000000000000038445D
:10531000808080804438000000000C040404344C79
:10532000848484844C3600000000000000007884EF
:1053300084FC808084780000000018242020F8205D
:1053400020202020207000000000000000003A44CF
:105350004478807C82827C000000C04040405864D9
:105360004444444444EE000000001010000030109B
:105370001010101010380000000010100000301045
:1053800010101010109060000000C04040405C48B9
:105390005060504844EE0000000030101010101112
:1053A0001010101010390000000000000000ACD2F6
:1053B0009292929292D6000000000000000058E401
:1053C0004444444444EE000000000000000038441F
:1053D0008282828244380000000000000000D8640D
:1053E000424242645840E000000000000000364C99
:1053F0008484844C34040E000000000000006C30F3
:10540000202020202070000000000000000078888C
:105410008460188444780000000000202020F820D8
:105420002020202024180000000000000000C642B8
:1054300042424242463A0000000000000000EE44B2
:105440004428282810100000000000000000EE444E
:105450004454542828280000000000000000EE44B6
:105460002810102844EE0000000000000000EE4468
:105470004428281010A0C0000000000000007E4456
:105480008810204284FC0000000C101010101060E6
:105490001010101010100C00001010101010101030
:1054A000101010101010100000C020202020201814
:1054B000202020202020C0000000000000000072FA
:1054C0008C000000000000000000000000001FE051
:1054D00000003FF000003FF000001FE000018006E8
:1054E0000003C00F0003C00F0003C00F0003C00F74
:1054F0000003C00F0003C00F0003C00F0003C00F64
:105500000003000300000000000000000000000095
:10551000000300030003C00F0003C00F0003C00F0F
:105520000003C00F0003C00F0003C00F0003C00F33
:105530000003C00F0001800600001FE000003FF0E4
:1055400000003FF000001FE000000000000000002D
:105550000000008000000180000003800000078040
:10556000000007800000078000000780000007801F
:10557000000007800000078000000780000007800F
:10558000000001800000000000000000000000009A
:1055900000000180000007800000078000000780F5
:1055A00000000780000007800000078000000780DF
:1055B00000000780000007800000038000000180D9
:1055C00000000080000000000000000000001FE05C
:1055D00000003FF00000FFF00001FFE000000006C7
:1055E0000000000F0000000F0000000F0000000F7F
:1055F0000000000F0000000F0000000F0000000F6F
:1056000000001FE300007FF800007FF800001FE0AB
:10561000000300000003C0000003C0000003C0003E
:105620000003C0000003C0000003C0000003C0006E
:105630000003C0000001800000001FF000003FF8E0
:1056400000003FFC00001FFE000000000003FF8080
:105650000001FFC00000FFC000007F8000000018B4
:105660000000003C0000003C0000003C0000003C4A
:105670000000003C0000003C0000003C0000003C3A
:1056800000007F8C0001FFE00001FFF000007F8040
:105690000000000C0000003C0000003C0000003C4A
:1056A0000000003C0000003C0000003C0000003C0A
:1056B0000000003C0000001800007F800000FFC0D8
:1056C0000001FFC00003FF80000000000000000098
:1056D0000002000100030003000380070003C00F65
:1056E0000003C00F0003C00F0003C00F0003C00F72
:1056F0000003C00F0003C00F0003C00F0003C00F62
:1057000000031FE300007FF800007FFC00001FE0A3
:10571000000000030000000F0000000F0000000F59
:105720000000000F0000000F0000000F0000000F3D
:105730000000000F0000000F000000070000000341
:1057400000000001000000000000000000001FFC3D
:1057500000003FF800003FF000001FE00001800063
:105760000003C0000003C0000003C0000003C0002D
:105770000003C0000003C0000003C0000003C0001D
:1057800000031FE000007FF800007FF800001FE02A
:10579000000000030000000F0000000F0000000FD9
:1057A0000000000F0000000F0000000F0000000FBD
:1057B0000000000F0000000600003FE000007FF046
:1057C0000000FFF00001FFE00000000000001FFCEF
:1057D00000003FF800003FF000001FE000018000E3
:1057E0000003C0000003C0000003C0000003C000AD
:1057F0000003C0000003C0000003C0000003C0009D
:1058000000031FE000007FF800007FFC00001FE0A5
:10581000000300030003C00F0003C00F0003C00F0C
:105820000003C00F0003C00F0003C00F0003C00F30
:105830000003C00F0001800600001FE000003FF0E1
:1058400000003FF000001FE0000000000007FFE044
:105850000003FFC00001FF880000FF1800000038AF
:105860000000007800000078000000780000007858
:105870000000007800000078000000780000007848
:105880000000001800000000000000000000000000
:105890000000001800000078000000780000007888
:1058A0000000007800000078000000780000007818
:1058B00000000078000000780000003800000018A8
:1058C00000000008000000000000000000001FE0D1
:1058D00000003FF000003FF000001FE000018006E4
:1058E0000003C00F0003C00F0003C00F0003C00F70
:1058F0000003C00F0003C00F0003C00F0003C00F60
:1059000000031FE300007FF800007FFC00001FE0A1
:10591000000300030003C00F0003C00F0003C00F0B
:105920000003C00F0003C00F0003C00F0003C00F2F
:105930000003C00F0001800600001FE000003FF0E0
:1059400000003FF000001FE00000000000001FE02A
:1059500000003FF000003FF000001FE00001800663
:105960000003C00F0003C00F0003C00F0003C00FEF
:105970000003C00F0003C00F0003C00F0003C00FDF
:1059800000031FE300007FF800007FFC00001FE021
:10599000000000030000000F0000000F0000000FD7
:1059A0000000000F0000000F0000000F0000000FBB
:1059B0000000000F0000000600001FE000003FF0A4
:1059C00000007FF00000FFE0000000000000000089
:1059D00000000000000000000000000000000000C7
:1059E00000000000000000000000000000000000B7
:1059F00000000000000000000000000000000000A7
:105A00000000000000000000000000000000000096
:105A1000000000000000000000000000000078000E
:105A20000000780000007800000078000000780096
:105A300000007800000000000000000000000000EE
:105A40000000000000000000000000000000000056
:105A50000000000000000000000000000000000046
:105A600000000000000000000000070000000F80A0
:105A700000000F8000000F80000007000000000001
:105A80000000000000000000000000000000000016
:105A9000000000000000070000000F8000000F80E1
:105AA00000000F8000000700000000000000000060
:105AB00000000000000000000000000000000000E6
:105AC00000000000000000000000000000000000D6
:105AD00000000000000000000007C006000FE00604
